:100000006F00000A1300000013000000130000003E
:10001000232E11FE232C51FE232A61FE232871FE7C
:100020002326A1FE2324B1FE2322C1FE2320D1FEDC
:10003000232EE1FC232CF1FC232A01FD232811FDB2
:100040002326C1FD2324D1FD2322E1FD2320F1FD40
:10005000130101FCEF20100C8320C10383228103D4
:1000600003234103832301030325C1028325810266
:1000700003264102832601020327C1018327810150
:100080000328410183280101032EC100832E810032
:10009000032F4100832F010013010104730020305E
:1000A0009701004093810176138101C1173500004B
:1000B000130545C0970500409385C5F4138641801C
:1000C00063DCC5008326050023A0D5001305450089
:1000D00093854500E3C8C5FE170500401305C5F22A
:1000E00097050040938585F26308B500232005003D
:1000F000130545006FF05FFF17350000130585BB42
:100100001301C1FF973500009385C5BA630EB50092
:1001100083260500130545002320A100E780060083
:10012000032501006FF01FFE13014100EF1000478F
:100130006F000000130101FEB7070081232C81002E
:1001400003A4070003A70700B706C0FF9386F6FFC6
:100150003377D700232E110023A0E700B707004014
:1001600083A707001307F0092326E1001306000008
:1001700037074000930540001305C1003374E400C5
:10018000E780070093070002370600832320F6006C
:100190000347D100B73700009387879193564700F4
:1001A000B386D70083C606009305A0006388B61007
:1001B0001377F7003387E70003470700370600830C
:1001C0002320D6009306A000630CD71037060083C7
:1001D0002320E600130700022320E6000347E10086
:1001E0009305A00093564700B386D70083C6060048
:1001F0006380B6121377F7003387E70003470700E1
:10020000370600832320D6009306A000630CD70E88
:10021000370600832320E600130700022320E600B0
:100220000347F1009305A00093564700B386D7001B
:1002300083C606006382B60C1377F700B387E70026
:1002400003C70700B707008323A0D7009306A000C9
:10025000630ED708B707008323A0E7001307D00079
:1002600023A0E7001307A00023A0E7006304040213
:1002700037070081832707008320C1010324810100
:10028000B7064000B3E7D7002320F70013010102AF
:1002900067800000B706008183A706003707C0FF0C
:1002A0008320C101032481011307F7FFB3F7E7009F
:1002B00023A0F60013010102678000001377F70006
:1002C0003387E7009305D000034707002320B600DB
:1002D000370600832320D6009306A000E318D7EE4C
:1002E0009306D0002320D6006FF05FEE9306D00077
:1002F00023A0D7006FF01FF69305D0002320B6008F
:100300006FF09FF39306D0002320D6006FF05FF0CC
:100310009305D0002320B6006FF0DFED130101F04C
:10032000930F0500938E0500F32200C0732F20C0A9
:10033000B7B7B912130E40019387170A13080110BB
:100340001303001013060100930601001397D70052
:100350003347F70093571701B3C7E70013975700C8
:10036000B347F7002380F60093861600E310D8FE0B
:1003700093060100930500001307000003C5060063
:1003800093080110B388B800938616006306050031
:100390002380E8F09385150013071700E31067FE2C
:1003A0000327060013064600B3C7E700E31A06FF5B
:1003B000130EFEFFE3180EF8732800C0F32520C0CB
:1003C00033055840638E0F46370700839306300489
:1003D0002320D700B73600009386D69213079007E4
:1003E0009308A000370600831305D00093861600FB
:1003F0006302174B2320E60003C70600E31807FE3D
:100400003305584037370000130787919356C501CD
:10041000B306D70003C806009306A0006304D8748F
:100420009356850193F6F600B306D70003C606007F
:10043000B706008323A00601130800036306060124
:100440001308A000630006519356450193F6F60089
:10045000B306D70003C80600B706008323A0C60072
:10046000130600036306C8001306A0006302C85009
:100470009356050193F6F600B306D70003C60600AF
:10048000B706008323A006011308000363060601D4
:100490001308A000630406519356C50093F6F600B6
:1004A000B306D70003C80600B706008323A0C60022
:1004B000130600036306C8001306A0006306C850B5
:1004C0009356850093F6F600B306D70003C60600E0
:1004D000B706008323A00601130800036306060184
:1004E0001308A000630806519356450093F6F600E2
:1004F000B306D70083C60600370800832320C80050
:10050000130600036386C6001306A000638AC65064
:100510001376F5003306C70003460600370800834C
:100520002320D800930600036306D6009306A0009C
:10053000630CD650B706008323A0C6001306D00074
:1005400023A0C6001306A00023A0C6001306900433
:1005500023A0C60037360000130696939306E006E4
:100560001303A000370800839308D0001306160079
:100570006382662E2320D80083460600E39806FE99
:10058000B386E54113D6C6013306C700034806000B
:100590001306A0006300C86013D686011376F60028
:1005A0003306C70083480600370600832320060170
:1005B00013080003638608011308A000638C084930
:1005C00013D646011376F6003306C700034806002B
:1005D00037060083232016019308000363061801E1
:1005E0009308A000630E184913D606011376F6008F
:1005F0003306C70083480600370600832320060120
:1006000013080003638608011308A0006380084BE9
:1006100013D6C6001376F6003306C700034806005B
:100620003706008323201601930800036306180190
:100630009308A0006302184B13D686001376F600C9
:100640003306C700834806003706008323200601CF
:1006500013080003638608011308A0006384084B95
:1006600013D646001376F6003306C700034806008B
:100670003706008323201601930800036306180140
:100680009308A0006306184B93F6F600B306D70054
:1006900003C60600B706008323A006011308000363
:1006A000630606011308A0006308064BB706008323
:1006B00023A0C6001306D00023A0C6001306A00086
:1006C00023A0C6001306300423A0C600373600005E
:1006D00013065694930680061303A0003708008380
:1006E0009308D00013061600638C66182320D800E8
:1006F00083460600E39806FE93D6C701B306D700EB
:1007000003C80600930600036306D8009306A00002
:100710006302D82293D6870193F6F600B306D7007A
:1007200003C60600B706008323A0060113080003D2
:10073000630606011308A0006308061F93D647014D
:1007400093F6F600B306D70003C80600B706008389
:1007500023A0C600130600036306C8001306A0000A
:10076000630EC81A93D6070193F6F600B306D700B6
:1007700003C60600B706008323A006011308000382
:10078000630606011308A0006304061993D6C70088
:1007900093F6F600B306D70003C80600B706008339
:1007A00023A0C600130600036306C8001306A000BA
:1007B000630AC81493D6870093F6F600B306D700F1
:1007C00003C60600B706008323A006011308000332
:1007D000630606011308A0006300061393D64700C2
:1007E00093F6F600B306D70083C6060037080083E9
:1007F0002320C800130600036386C6001306A0006A
:100800006386C60E93F7F7003307F7000347070028
:10081000B707008323A0D700930600036306D70021
:100820009306A0006302D70AB707008323A0E7005E
:100830001307D00023A0E7001307A00023A0E700C0
:1008400063860E00B385E54123A0BE0013010110AD
:1008500067800000232018012320D800834606006B
:10086000E39606D0B386E54113D6C6013306C7002A
:10087000034806001306A000E310C8D26F008031C1
:10088000232018012320D80083460600E39C06E4B9
:100890006FF09FE62320A6002320E60003C7060092
:1008A000E31607B433055840373700001307879124
:1008B0009356C501B306D70003C806009306A000EF
:1008C000E310D8B66F00002A9306D00023A0D7000B
:1008D000B707008323A0E7001307D00023A0E70099
:1008E0001307A00023A0E7006FF09FF51306D000C8
:1008F0002320C8006FF01FF11308D00023A00601C9
:100900006FF0DFED1306D00023A0C6006FF09FEA62
:100910001308D00023A006016FF05FE71306D00094
:1009200023A0C6006FF01FE41308D00023A0060127
:100930006FF0DFE0B70600831306D00023A0C600E7
:100940006FF05FDD1308D00023A006019356450128
:1009500093F6F600B306D70003C80600B706008377
:1009600023A0C60013060003E310C8B06FF05FB009
:100970001306D00023A0C6009356050193F6F60097
:10098000B306D70003C60600B706008323A00601FE
:1009900013080003E31E06AF6FF01FB01308D0006A
:1009A00023A006019356C50093F6F600B306D700C0
:1009B00003C80600B706008323A0C6001306000381
:1009C000E31CC8AE6FF0DFAF1306D00023A0C60053
:1009D0009356850093F6F600B306D70003C60600CB
:1009E000B706008323A0060113080003E31A06AF2D
:1009F0006FF09FAF1308D00023A006019356450067
:100A000093F6F600B306D70083C6060037080083C6
:100A10002320C80013060003E398C6AE6FF05FAF53
:100A20001306D0002320C8001376F5003306C70054
:100A300003460600370800832320D80093060003EE
:100A4000E316D6AE6FF01FAF9306D0002320D80078
:100A50006FF05FAE1308D0002320060113D64601C5
:100A60001376F6003306C7000348060037060083F6
:100A70002320160193080003E31418B76FF0DFB6C4
:100A80009308D0002320160113D606011376F60032
:100A90003306C7008348060037060083232006017B
:100AA00013080003E39208B76FF09FB61308D00055
:100AB0002320060113D6C6001376F6003306C700BE
:100AC000034806003706008323201601930800031D
:100AD000E31018B76FF05FB69308D000232016011B
:100AE00013D686001376F6003306C7008348060047
:100AF000370600832320060113080003E39E08B590
:100B00006FF01FB61308D0002320060113D646004D
:100B10001376F6003306C700034806003706008345
:100B20002320160193080003E31C18B56FF0DFB50E
:100B300093F6F600B306D7009308D00023201601E1
:100B400003C60600B706008323A0060113080003AE
:100B5000E31A06B56FF09FB51308D00023A0060175
:100B60006FF0DFB4B70600831306D00023A0C600E1
:100B70009356850193F6F600B306D70003C6060028
:100B8000B706008323A0060113080003E31A068BAF
:100B90006FF09F8B370600839308D0002320160147
:100BA00013D686011376F6003306C7008348060085
:100BB000370600832320060113080003E39E089FE5
:100BC0006FF01FA0130101FEB70700831307400653
:100BD000232E1100232C8100232A910023260100BB
:100BE00023A0E70037370000130717959307500637
:100BF0001306A000B70600839305D0001307170063
:100C0000E38CC70223A0F60083470700E39807FEA2
:100C1000B707008103A70700B706C0FF9386F6FF5A
:100C20003377D70023A0E70083A607003707F0FF3C
:100C30001307F7FFB3F6E60023A0D700373700000D
:100C4000B70700839306A00323A0D7009304D7B669
:100C5000930700021307D7B61306A000B706008358
:100C60009305D00013071700638EC77A23A0F60000
:100C700083470700E39807FE9305C10013050000B2
:100C8000EFF0CFE937340000130484919357C50186
:100C9000B307F40083C607009307A0006398F6002B
:100CA000B70700831307D00023A0E70093578501FF
:100CB00093F7F700B307F40003C70700B7070083F3
:100CC00023A0D700930600036306D7009306A00075
:100CD000E300D70C9357450193F7F700B307F400EF
:100CE00083C60700B707008323A0E70013070003AC
:100CF0006386E6001307A000E386E6089357050124
:100D000093F7F700B307F40003C70700B7070083A2
:100D100023A0D700930600036306D7009306A00024
:100D2000E30CD7049357C50093F7F700B307F4001B
:100D300083C60700B707008323A0E700130700035B
:100D40006386E6001307A000E382E602935785005E
:100D500093F7F700B307F40003C70700B707008352
:100D600023A0D700930600036306D7009306A000D4
:100D70006308D77E9357450093F7F700B307F40055
:100D800083C70700B706008323A0E600130700030C
:100D90006386E7001307A000638EE77A1375F500FA
:100DA0003305A40003470500B706008323A0F6001F
:100DB000930700036306F7009307A0006306F77824
:100DC000B707008323A0E7001307D00023A0E700A4
:100DD0001307A00023A0E7001307400623A0E700A5
:100DE0003737000013071796930730071306A00044
:100DF000B70600839305D00013071700638AC76006
:100E000023A0F60083470700E39807FEB707008397
:100E10001307000323A0E7001307000223A0E70045
:100E20003737000013079796930700021306A000B8
:100E3000B70600839305D000130717006380C75CD3
:100E400023A0F60083470700E39807FE37070081D9
:100E500083270700B70640001306A000B3E7D700BA
:100E60002320F700B70700831307A00323A0E700A0
:100E7000B706008313870400930700029305D00090
:100E8000130717006382C75623A0F60083470700A5
:100E9000E39807FE9305C10013050000EFF00FC8AB
:100EA0009357C501B307F40083C607009307A0005A
:100EB0006398F600B70700831307D00023A0E7006C
:100EC0009357850193F7F700B307F40003C70700B2
:100ED000B707008323A0D700930600036306D7005B
:100EE0009306A000630CD7649357450193F7F7006E
:100EF000B307F40083C60700B707008323A0E70009
:100F0000130700036386E6001307A0006382E6620E
:100F10009357050193F7F700B307F40003C70700E1
:100F2000B707008323A0D700930600036306D7000A
:100F30009306A0006308D75E9357C50093F7F700A8
:100F4000B307F40083C60700B707008323A0E700B8
:100F5000130700036386E6001307A000638EE65ABA
:100F60009357850093F7F700B307F40003C7070012
:100F7000B707008323A0D700930600036306D700BA
:100F80009306A0006304D7589357450093F7F700E2
:100F9000B307F40083C70700B706008323A0E60069
:100FA000130700036386E7001307A000638AE75472
:100FB0001375F5003305A40003470500B706008349
:100FC00023A0F600930700036306F7009307A00031
:100FD0006302F752B707008323A0E7001307D0008E
:100FE00023A0E7001307A00023A0E7001307400693
:100FF00023A0E70037370000130757979307300700
:101000001306A000B70600839305D000130717004E
:101010006382C73C23A0F60083470700E39807FEDE
:10102000B70700831307000323A0E700130700029C
:1010300023A0E700373700001307D7969307000275
:101040001306A000B70600839305D000130717000E
:101050006388C73623A0F60083470700E39807FE9E
:101060003707008183270700B70610001306A0008A
:10107000B3E7D7002320F700B70700831307A003C7
:1010800023A0E700B706008313870400930700023C
:101090009305D00013071700638AC73023A0F6001A
:1010A00083470700E39807FE9305C100130500007E
:1010B000EFF0CFA69357C501B307F40083C607002E
:1010C0009307A0006398F600B70700831307D000CA
:1010D00023A0E7009357850193F7F700B307F400C7
:1010E00003C70700B707008323A0D70093060003B8
:1010F0006306D7009306A0006308D73E93574501C7
:1011000093F7F700B307F40083C60700B70700831F
:1011100023A0E700130700036386E6001307A0007F
:10112000638EE63A9357050193F7F700B307F4008F
:1011300003C70700B707008323A0D7009306000367
:101140006306D7009306A0006304D7389357C50001
:1011500093F7F700B307F40083C60700B7070083CF
:1011600023A0E700130700036386E6001307A0002F
:10117000638AE6349357850093F7F700B307F400CA
:1011800003C70700B707008323A0D7009306000317
:101190006306D7009306A0006300D732935745003B
:1011A00093F7F700B307F40083C70700B70600837F
:1011B00023A0E600130700036386E7001307A000DF
:1011C0006386E72E1375F5003305A4000347050079
:1011D000B706008323A0F600930700036306F70019
:1011E0009307A000630EF72AB707008323A0E70048
:1011F0001307D00023A0E7001307A00023A0E700F7
:101200001307900623A0E70037370000130717984D
:101210009307E0061306A000B70600839305D000ED
:1012200013071700638AC71623A0F6008347070039
:10123000E39807FE8326C1009307A00013D7C601D9
:101240003307E400034607006318F600B70700837E
:101250001307D00023A0E70093D7860193F7F70088
:10126000B307F40003C70700B707008323A0C70034
:10127000130600036306C7001306A000630CC72013
:1012800093D7460193F7F700B307F40003C60700AE
:10129000B707008323A0E700130700036306E600F7
:1012A0001307A0006302E61E93D7060193F7F70029
:1012B000B307F40003C70700B707008323A0C700E4
:1012C000130600036306C7001306A0006308C71ACD
:1012D00093D7C60093F7F700B307F40003C60700DF
:1012E000B707008323A0E700130700036306E600A7
:1012F0001307A000630EE61693D7860093F7F70056
:10130000B307F40003C70700B707008323A0C70093
:10131000130600036306C7001306A0006304C71486
:1013200093D7460093F7F700B307F40003C607000E
:10133000B707008323A0E700130700036306E60056
:101340001307A000630AE61093F7F6003304F400D5
:1013500003470400B707008323A0C70093060003D8
:101360006306D7009306A0006302D70EB707008379
:1013700023A0E7008320C101032481011307D000CB
:1013800023A0E7001307A00023A0E7008324410166
:10139000130101026780000023A0B60023A0F6001D
:1013A00083470700E39E07E66FF0DFE823A0B6005F
:1013B00023A0F60083470700E39E07CC6FF0DFCE43
:1013C00023A0B60023A0F60083470700E39007C8D8
:1013D0006FF01FC923A0B60023A0F60083470700C3
:1013E000E39607C26FF0DFC323A0B60023A0F60088
:1013F00083470700E39607A86FF0DFA923A0B60094
:1014000023A0F60083470700E39807A26FF01FA40C
:1014100023A0B60023A0F60083470700E39E079CA5
:101420006FF0DF9E23A0B60023A0F60083470700DD
:10143000E39A07826FF05F8423A0B60023A0F60032
:1014400083470700639C07FA6FF08FFC9306D00078
:1014500023A0D7006FF09FF11307D00023A0E7006F
:101460006FF09FEE1306D00023A0C7006FF05FEB74
:101470001307D00023A0E7006FF01FE81306D00089
:1014800023A0C7006FF0DFE41307D00023A0E7001C
:101490006FF09FE11306D00023A0C7006FF05FDE5E
:1014A0009307D00023A0F6006FF01FD41307D000DD
:1014B00023A0E6006FF01FD19306D00023A0D70031
:1014C0006FF0DFCD1307D00023A0E7006FF09FCAB5
:1014D0009306D00023A0D7006FF05FC71307D0009A
:1014E00023A0E7006FF01FC49306D00023A0D7000D
:1014F0006FF0DFC09307D00023A0F6006FF09FAD20
:101500001307D00023A0E6006FF09FAA9306D00037
:1015100023A0D7006FF05FA71307D00023A0E70038
:101520006FF01FA49306D00023A0D7006FF0DFA0B8
:101530001307D00023A0E7006FF09F9D9306D00013
:1015400023A0D7006FF05F9A9307D00023A0F60086
:101550006FF01F871307D00023A0E6006FF01F84F1
:101560009306D00023A0D7006FF0DF801307D000D0
:1015700023A0E7006FF08FFD9306D00023A0D700D3
:101580006FF04FFA1307D00023A0E7006FF00FF7BA
:101590009306D00023A0D7006FF0CFF3130101E62C
:1015A000232E1118232C8118232A9118232821195E
:1015B000232631192324411923225119232061198B
:1015C000232E7117232C8117232A91172328A11763
:1015D0002326B117B70700831307800D23A2E70066
:1015E000B70700821307F00323A4E70023A0E70056
:1015F0003707008183270700B70610003706400031
:10160000B3E7D7002320F700832607009307A00045
:101610009305A000B3E6C6002320D70037370000AB
:1016200013074799B70600831306D0001307170066
:10163000638CB77023A0F60083470700E39807FE8A
:10164000B70700831307000223A0E7003737000025
:101650001307D799930700029305A000B7060083EC
:101660001306D00013071700638AB76E23A0F60095
:1016700083470700E39807FEB70700831307D000EE
:1016800023A0E7001307A00023A0E700B70700404E
:101690009387470023A0070083A607003727000091
:1016A0001307F770634CD70083A6070093861600D4
:1016B00023A0D70083A60700E358D7FE3707008290
:1016C0009306E0032320D70023A0070083A607008A
:1016D000372700001307F770634CD70083A6070075
:1016E0009386160023A0D70083A60700E358D7FEF1
:1016F000370700829306D0032320D70023A00700DA
:1017000083A60700372700001307F770634CD70044
:1017100083A607009386160023A0D70083A60700A0
:10172000E358D7FE370700829306B0032320D70083
:1017300023A0070083A60700372700001307F770D0
:10174000634CD70083A607009386160023A0D7001A
:1017500083A60700E358D7FE37070082930670037D
:101760002320D70023A0070083A607003727000007
:101770001307F770634CD70083A607009386160003
:1017800023A0D70083A60700E358D7FE37070082BF
:101790009306F0022320D70023A0070083A60700AA
:1017A000372700001307F770634CD70083A60700A4
:1017B0009386160023A0D70083A60700E358D7FE20
:1017C000370700829306F0012320D70023A00700EB
:1017D00083A60700372700001307F770634CD70074
:1017E00083A607009386160023A0D70083A60700D0
:1017F000E358D7FE370700829306F0032320D70073
:1018000023A0070083A60700372700001307F770FF
:10181000634CD70083A607009386160023A0D70049
:1018200083A60700E358D7FE37070082232007006E
:1018300023A0070083A60700372700001307F770CF
:10184000634CD70083A607009386160023A0D70019
:1018500083A60700E358D7FE370700829306F003FC
:101860002320D70023A0070083A607003727000006
:101870001307F770634CD70083A607009386160002
:1018800023A0D70083A60700E358D7FEB73900008E
:101890009387199D232AF100B7370000938757A03B
:1018A000232CF100B73700009387D7A1232EF10036
:1018B000B7370000938757A32320F102B737000002
:1018C0009387D7A42322F102B7370000938757A646
:1018D000232AF102B73700009387D7A7232CF10200
:1018E000B7370000938757A9232EF102B7370000BE
:1018F0009387D7AA2320F104B7370000938797ACCA
:101900002322F104B7370000938757AE2324F10454
:10191000B73700009387D7AF2326F104B73700000D
:10192000938797B12328F104B7370000938757B402
:10193000232AF104B7370000938797B8B734000023
:10194000232CF104938714B92326F100B737000044
:101950009387D7B9232EF104B73700009387D79226
:101960002324F102B7370000938797932326F102CF
:10197000B7370000938757943704F0FFB73F000054
:10198000373C0000B73C0000373D0000B732000094
:10199000373900002328F102B73E00009307F4FF17
:1019A000938F5F9E130C8C91938C1CB7130D4DBAC3
:1019B0009382D2B7130959B993845EB6B70A0083EC
:1019C000930BD000130BA000930900022328F10011
:1019D0009307D00023A0FA000327410193073005A5
:1019E00023A06A0123A0FA009307500613071700EB
:1019F000E38C673523A0FA0083470700E39807FECE
:101A000023A07A0123A06A0123A03A0113870F00C3
:101A10009307000213071700E38E673123A0FA0033
:101A200083470700E39807FE0327810123A03A01BB
:101A30009307000213071700E384672F23A0FA001F
:101A400083470700E39807FE0327C10123A03A015B
:101A50009307000213071700E38A672B23A0FA00FD
:101A600083470700E39807FE0327010223A03A01FA
:101A70009307000213071700E380672923A0FA00E9
:101A800083470700E39807FE0327410223A03A019A
:101A90009307000213071700E386672523A0FA00C7
:101AA00083470700E39807FE0327410323A03A0179
:101AB0009307000213071700E38C672123A0FA00A5
:101AC00083470700E39807FE0327810323A03A0119
:101AD0009307000213071700E382671F23A0FA0091
:101AE00083470700E39807FE0327C10323A03A01B9
:101AF0009307000213071700E388671B23A0FA006F
:101B000083470700E39807FE0327010423A03A0157
:101B10009307000213071700E38E671723A0FA004C
:101B200083470700E39807FE0327410423A03A01F7
:101B30009307000213071700E384671523A0FA0038
:101B400083470700E39807FE0327810423A03A0197
:101B50009307000213071700E38A671123A0FA0016
:101B600083470700E39807FE0327C10423A03A0137
:101B70009307000213071700E380670F23A0FA0002
:101B800083470700E39807FE0327010523A03A01D6
:101B90009307000213071700E386670B23A0FA00E0
:101BA00083470700E39807FE0327410523A03A0176
:101BB0009307000213071700E38C670723A0FA00BE
:101BC00083470700E39807FE3704C0FF130AA0000D
:101BD000930D90041304F4FF23A07A0123A06A015B
:101BE00023A0BA01138704009307F004130717001A
:101BF0006388677523A0FA0083470700E39807FE10
:101C0000B707008283A7470013D7C7013307EC004B
:101C100003460700630A667513D787011377F70039
:101C20003307EC008346070023A0CA00638C667567
:101C300013D747011377F7003307EC00034607007B
:101C400023A0DA00630E667513D707011377F70038
:101C50003307EC008346070023A0CA006380667741
:101C600013D7C7001377F7003307EC0003460700CC
:101C700023A0DA006302667713D787001377F70093
:101C80003307EC008346070023A0CA00638466770D
:101C900013D747001377F7003307EC00034707001B
:101CA00023A0DA006306677793F7F700B307FC0019
:101CB00083C7070023A0EA006388677723A0FA00A0
:101CC00023A07A0123A06A0123A07A01930730049C
:101CD00023A06A0123A0FA0013870C009307F006E3
:101CE000130717006384676523A0FA008347070082
:101CF000E39807FEF32700C01307F0FFF32700C0A7
:101D000083A70A00E38CE7FE1387F7FD1377F70F2D
:101D10009306D00593F7F70F63E6E60063806757F5
:101D200023A0FA0023A07A0123A06A019387F7FC7D
:101D3000130720046360F70693972700B307FD009D
:101D400083A707006780070023A0C60023A0F60032
:101D500083470700E39C078C6FF09F8E23A0C6008B
:101D600023A0F60083470700E39E078E6FF0DF9005
:101D7000B707008103A70700832601013377D70047
:101D800023A0E70003A70700B70640003367D7008A
:101D900023A0E700130AFAFFE3100AE46FF05FC321
:101DA00023A07A019307300523A06A0123A0FA003B
:101DB000138702009307000513071700E3886733B2
:101DC00023A0FA0083470700E39807FE0327810555
:101DD00023A03A019307000213071700E386672B3D
:101DE00023A0FA0083470700E39807FEB7070081A6
:101DF00083A7070037074000B3F7E700E398072AF7
:101E00009307F00423A0FA00130709009307600466
:101E100013071700E386672F23A0FA008347070004
:101E2000E39807FE0327C10523A03A0193070002A8
:101E3000130717006384677323A0FA008347070022
:101E4000E39807FEB707008183A707003707100054
:101E5000B3F7E700639607729307F00423A0FA0034
:101E6000130709009307600413071700638C6701C9
:101E700023A0FA0083470700E38E07F0130717003B
:101E8000E39867FF23A07A0123A0FA0083470700A5
:101E9000E39C07FC130AFAFFE3100AD46FF05FB368
:101EA000B707008103A7070083260101130AFAFF81
:101EB0003377870023A0E70003A707003377D70015
:101EC00023A0E700E31A0AD06FF09FB0EFE08FA6DF
:101ED000B7370000938F579E130AFAFFB7370000F9
:101EE0009382D7B7E31A0ACE6FF09FAEB70700818F
:101EF00003A70700B70610003367D7006FF05FE84D
:101F0000732E00C0732320C0B7B7B91293084001E5
:101F10009387170A1305011613080010130601060C
:101F200093060600138707009317D700B3C7E7008F
:101F300013D71701B3C7E7001397570033C7E7005C
:101F40002380E60093861600E310D5FE9307070072
:101F500093060106930E00001307000083C50600D8
:101F6000638A050093050116B385D5012380E5F04A
:101F7000938E1E001307170093861600E31007FFC9
:101F80000327060013064600B3C7E700E31AC5FEA1
:101F90009388F8FFE39408F8F32500C0732620C067
:101FA000832681021307300423A0EA001307900759
:101FB00093861600630A676123A0EA0003C7060040
:101FC000E31807FE338EC5411357CE013307EC00EB
:101FD00083460700638C666113578E011377F70001
:101FE0003307EC008345070023A0DA00638E6561A8
:101FF00013574E011377F7003307EC0083460700B1
:1020000023A0BA006380666313570E011377F700AD
:102010003307EC008345070023A0DA006382656381
:102020001357CE001377F7003307EC008346070001
:1020300023A0BA006384666313578E001377F700FA
:102040003307EC008345070023A0DA00638665634D
:1020500013574E001377F7003307EC008346070051
:1020600023A0BA0063886663137EFE003307CC01A9
:102070000347070023A0DA00630A676323A0EA008E
:1020800023A07A018326C10223A06A0123A0BA01FA
:102090001307E00693861600630E676123A0EA002B
:1020A00003C70600E31807FE330366401357C30156
:1020B0003307EC0083460700638066631357830190
:1020C0001377F7003307EC000346070023A0DA007C
:1020D00063026663135743011377F7003307EC007D
:1020E0008346070023A0CA00638466631357030175
:1020F0001377F7003307EC000346070023A0DA004C
:10210000630666631357C3001377F7003307EC00C9
:102110008346070023A0CA006388666313578300C1
:102120001377F7003307EC000346070023A0DA001B
:10213000630A6663135743001377F7003307EC0015
:102140008346070023A0CA00638C66631373F30001
:1021500033076C000347070023A0DA00630E6763B0
:1021600023A0EA0023A07A01832601031307300489
:1021700023A06A0123A0EA001307800693861600B5
:102180006300676323A0EA0003C70600E31807FEA5
:1021900013D7C7013307EC000346070063026663E9
:1021A00013D787011377F7003307EC008346070046
:1021B00023A0CA006384666313D747011377F7002F
:1021C0003307EC000346070023A0DA0063066663CA
:1021D00013D707011377F7003307EC008346070096
:1021E00023A0CA006388666313D7C7001377F7007C
:1021F0003307EC000346070023A0DA00630A666396
:1022000013D787001377F7003307EC0083460700E6
:1022100023A0CA00638C666313D747001377F700C7
:102220003307EC000347070023A0DA00630E67635F
:1022300093F7F700B307FC0083C7070023A0EA0069
:102240006380676523A0FA0023A07A0123A06A01B6
:10225000130AFAFFE3120A986FF08FF7EFE09F96E8
:10226000B7370000938F579E130AFAFFB737000065
:102270009382D7B7E3120A966FF08FF523A07A0105
:102280006FF01FAA3707008283270700130AFAFF9F
:1022900093C707022320F700E3100A946FF04FF36F
:1022A0003707008283270700130AFAFF93C7070145
:1022B0002320F700E3120A926FF08FF137070082B4
:1022C00083270700130AFAFF93C787002320F7002C
:1022D000E3140A906FF0CFEF3707008283270700DF
:1022E000130AFAFF93C747002320F700E3160A8E6C
:1022F0006FF00FEE3707008283270700130AFAFFFB
:1023000093C727002320F700E3180A8C6FF04FECE7
:102310003707008283270700130AFAFF93C71700C5
:102320002320F700E31A0A8A6FF08FEA23A07A01CC
:1023300023A0FA0083470700E394079A6FF09F9B5E
:1023400023A07A0123A0FA0083470700E390078ABD
:10235000B707008283A7470013D7C7013307EC00F4
:1023600003460700E31A668B13D787011377F7003C
:102370003307EC008346070023A07A0123A0CA009C
:10238000E398668B13D747011377F7003307EC0008
:102390000346070023A07A0123A0DA00E316668B28
:1023A00013D707011377F7003307EC0083460700C4
:1023B00023A07A0123A0CA00E394668B13D7C70039
:1023C0001377F7003307EC000346070023A07A01D8
:1023D00023A0DA00E312668B13D787001377F70088
:1023E0003307EC008346070023A07A0123A0CA002C
:1023F000E390668B13D747001377F7003307EC00A1
:102400000347070023A07A0123A0DA00E31E6789AF
:1024100093F7F700B307FC0083C7070023A07A01F6
:1024200023A0EA00E39C678923A07A016FF01F894B
:1024300023A07A0123A0FA0083470700639C07F6D4
:102440006FF08FF823A07A0123A0FA0083470700DA
:10245000639207F46FF04FF523A07A0123A0FA00EE
:1024600083470700639807F06FF00FF223A07A010B
:1024700023A0FA0083470700639E07EC6FF0CFEEBE
:1024800023A07A0123A0FA0083470700639407EA98
:102490006FF08FEB23A07A0123A0FA008347070097
:1024A000639A07E66FF04FE823A07A0123A0FA00B1
:1024B00083470700639007E46FF00FE523A07A01DC
:1024C00023A0FA0083470700639607E06FF0CFE18F
:1024D00023A07A0123A0FA0083470700639C07DC4E
:1024E0006FF08FDE23A07A0123A0FA008347070054
:1024F000639207DA6FF04FDB23A07A0123A0FA0082
:1025000083470700639807D66FF00FD823A07A019E
:1025100023A0FA0083470700639E07D26FF0CFD451
:1025200023A07A0123A0FA0083470700639407D011
:102530006FF08FD123A07A0123A0FA008347070010
:10254000639A07CC6FF04FCE23A07A0123A0FA0044
:1025500083470700639C07C86FF08FCA23A07A01E6
:1025600023A0FA0083470700E394078CB707008194
:1025700083A7070037071000B3F7E700E38E078C47
:102580000327C1009307F00423A0FA009307E00497
:1025900013071700638C670123A0FA008347070025
:1025A000638A07FE13071700E39867FF23A07A01E9
:1025B00023A0FA0083470700E39C07FC130AFAFFF5
:1025C000631C0AE06FF0CFC023A07A0123A0EA00C9
:1025D00003C70600E31E079C338EC5411357CE0187
:1025E0003307EC0083460700E398669F13578E017C
:1025F0001377F7003307EC008345070023A07A0127
:1026000023A0DA00E396659F13574E011377F70076
:102610003307EC008346070023A07A0123A0BA0009
:10262000E394669F13570E011377F7003307EC000E
:102630008345070023A07A0123A0DA00E392659F77
:102640001357CE001377F7003307EC0083460700DB
:1026500023A07A0123A0BA00E390669F13578E004F
:102660001377F7003307EC008345070023A07A01B6
:1026700023A0DA00E39E659D13574E001377F70001
:102680003307EC008346070023A07A0123A0BA0099
:10269000E39C669D137EFE003307CC0103470700D1
:1026A00023A07A0123A0DA00E31A679D23A07A0110
:1026B0006FF0DF9C23A07A0123A0EA0003C7060085
:1026C000E31A079C330366401357C3013307EC003A
:1026D00083460700E394669F135783011377F7003F
:1026E0003307EC000346070023A07A0123A0DA0099
:1026F000E312669F135743011377F7003307EC008B
:102700008346070023A07A0123A0CA00E390669FB6
:10271000135703011377F7003307EC000346070054
:1027200023A07A0123A0DA00E31E669D1357C3009D
:102730001377F7003307EC008346070023A07A01E4
:1027400023A0CA00E39C669D135783001377F7000C
:102750003307EC000346070023A07A0123A0DA0028
:10276000E31A669D135743001377F7003307EC0015
:102770008346070023A07A0123A0CA00E398669D40
:102780001373F30033076C000347070023A07A019B
:1027900023A0DA00E316679D23A07A016FF05F9C07
:1027A00023A07A0123A0EA0003C70600E318079CD0
:1027B00013D7C7013307EC0003460700E312669FF7
:1027C00013D787011377F7003307EC008346070020
:1027D00023A07A0123A0CA00E390669F13D7470184
:1027E0001377F7003307EC000346070023A07A01B4
:1027F00023A0DA00E31E669D13D707011377F700C5
:102800003307EC008346070023A07A0123A0CA0007
:10281000E39C669D13D7C7001377F7003307EC00DE
:102820000346070023A07A0123A0DA00E31A669D7D
:1028300013D787001377F7003307EC0083460700B0
:1028400023A07A0123A0CA00E398669D13D747000E
:102850001377F7003307EC000347070023A07A0142
:1028600023A0DA00E316679D93F7F700B307FC0097
:1028700083C7070023A07A0123A0EA00E394679DA1
:1028800023A07A016FF01F9C23A07A0123A0FA00F5
:1028900083470700639207D4B707008183A7070027
:1028A00037074000B3F7E700638C07D40327C10064
:1028B0009307F00423A0FA009307E004130717001E
:1028C000638C670123A0FA0083470700638C07D459
:1028D00013071700E39867FF23A07A0123A0FA00EB
:1028E00083470700E39C07FC6FF0CFD323A07A0156
:1028F00023A0FA0083470700639007CC6FF00FCD49
:1029000023A07A0123A0FA0083470700639207D02F
:102910006FF04FD1678000003031323334353637B5
:102920003839616263646566000000004379636C56
:1029300065733A2030780000496E73746E733A20E4
:102940003078000043686B73756D3A203078000072
:1029500064656661756C7420202020202020200092
:10296000647370692D00000020202020202020208A
:1029700020000000647370692D63726D2D000000EB
:10298000696E73746E732020202020202020203A4E
:10299000200000000A0A0A0A0A0A0A002020202051
:1029A000202020202020204F6E204C696368656520
:1029B0002054616E67204E616E6F2D394B20627915
:1029C00020506574657220476C656E0A0000000037
:1029D00053656C65637420616E20616374696F6E0A
:1029E0003A0A00002020205B305D2052756E206D79
:1029F00061696E2061707020286B696F736B290AA2
:102A0000000000002020205B315D20546F67676C60
:102A100065206C656420310A000000002020205BE6
:102A2000325D20546F67676C65206C656420320AE4
:102A3000000000002020205B335D20546F67676C2E
:102A400065206C656420330A000000002020205BB4
:102A5000345D20546F67676C65206C656420340AB0
:102A6000000000002020205B355D20546F67676CFC
:102A700065206C656420350A000000002020205B82
:102A8000365D20546F67676C65206C656420360A7C
:102A9000000000002020205B465D20476574206612
:102AA0006C617368206D6F64650A00002020205BF4
:102AB000495D20526561642053504920666C617302
:102AC000682049440A0000002020205B535D205309
:102AD00065742053696E676C6520535049206D6F93
:102AE00064650A002020205B445D20536574204407
:102AF000535049206D6F64650A0000002020205B60
:102B0000435D2053657420445350492B43524D205C
:102B10006D6F64650A0000002020205B425D20523A
:102B2000756E2073696D706C69737469632062657A
:102B30006E63686D61726B2056657220312E302E87
:102B4000300A00002020205B415D2042656E6368F2
:102B50006D61726B20616C6C20636F6E6669677368
:102B60000A000000494F2053746174653A20000048
:102B7000436F6D6D616E643E20000000535049202C
:102B800053746174653A0A00202044535049200070
:102B90004F4E0A004F46460A0000000020204352D4
:102BA0004D20200010230000F4220000D822000055
:102BB000BC220000A022000084220000941D00001E
:102BC000941D0000941D0000941D0000941D000041
:102BD000941D0000941D0000941D0000941D000031
:102BE000941D00005C220000001F0000EC1E00008D
:102BF000701D0000941D0000A01D0000941D000029
:102C0000941D0000CC1E0000941D0000941D0000C7
:102C1000941D0000941D0000941D0000941D0000F0
:102C2000941D0000941D0000941D0000A01E0000D3
:102C3000941D0000941D0000941D0000941D0000D0
:102C4000941D0000941D0000941D0000941D0000C0
:102C5000941D0000941D0000941D0000941D0000B0
:102C6000941D00005C220000001F0000EC1E00000C
:102C7000701D0000941D0000A01D0000941D0000A8
:102C8000941D0000CC1E0000941D0000941D000047
:102C9000941D0000941D0000941D0000941D000070
:102CA000941D0000941D0000941D0000A01E000053
:042CB000540000804C
:00000001FF
