:100000006F00000A1300000013000000130000003E
:10001000232E11FE232C51FE232A61FE232871FE7C
:100020002326A1FE2324B1FE2322C1FE2320D1FEDC
:10003000232EE1FC232CF1FC232A01FD232811FDB2
:100040002326C1FD2324D1FD2322E1FD2320F1FD40
:10005000130101FCEF1050318320C103832281037F
:1000600003234103832301030325C1028325810266
:1000700003264102832601020327C1018327810150
:100080000328410183280101032EC100832E810032
:10009000032F4100832F010013010104730020305E
:1000A0009711004093810185138101C1172500003C
:1000B0001305456A970500409385C5F41386818032
:1000C00063DCC5008326050023A0D5001305450089
:1000D00093854500E3C8C5FE1705004013050502DA
:1000E000970500409385C5016308B50023200500EE
:1000F000130545006FF05FFF1725000013058565A8
:100100001301C1FF972500009385C564630EB500F8
:1001100083260500130545002320A100E780060083
:10012000032501006FF01FFE13014100EF0050296D
:100130006F0000006340050663C6050613860500D0
:10014000930505001305F0FF630C060293061000EB
:10015000637AB6006358C000131616009396160013
:10016000E36AB6FE1305000063E6C500B385C5402B
:100170003365D50093D6160013561600E39606FE97
:100180006780000093820000EFF05FFB138505009D
:10019000678002003305A04063D80500B305B04076
:1001A0006FF0DFF9B305B04093820000EFF01FF964
:1001B0003305A040678002009382000063CA0500F7
:1001C000634C0500EFF09FF7138505006780020080
:1001D000B305B040E35805FE3305A040EFF01FF62D
:1001E0003305B04067800200130101FDB7070081AD
:1001F0002328610103AB070003A70700B706C0FF70
:100200009386F6FF232481022322910223202103D7
:10021000232E3101232C4101232A51013377D700AA
:100220002326110223A0E70083A741801307F009CA
:100230002320E100130501003707400013060000EA
:1002400093054000337BEB0013090500930A31004E
:10025000E780070037040083130A00029304A0001C
:100260009309D00023204401034519009306C000E0
:100270001306410093050001EF10500F8347410022
:10028000638E070013074100130717006386970664
:100290002320F40083470700E39807FE13091900A1
:1002A000E31259FDB70700831307D00023A0E7002E
:1002B0001307A00023A0E700630E0B04370700819B
:1002C00083270700B7064000B3E7D7002320F700D5
:1002D0008320C102032481028324410203290102F5
:1002E0008329C101032A8101832A4101032B0101D2
:1002F0001301010367800000232034012320F40050
:1003000083470700E39207F813091900E31C59F526
:100310006FF05FF9B706008183A706003707C0FFBB
:100320001307F7FFB3F7E70023A0F6006FF05FFABB
:10033000130101ED2322911223261112232481128D
:1003400023202113232E3111232C4111130E0500DC
:1003500093840500F32E00C0732920C037B4B9126E
:10036000130340011304140A13050111930800102C
:1003700093060101138706009317D400B3C78700C3
:1003800013D417013344F4009317540033C4870087
:100390002300870013071700E310E5FE1307010190
:1003A000130600009307000083450700130801119E
:1003B0003308C80013071700638605002300F8F010
:1003C0001306160093871700E39017FF83A7060014
:1003D000938646003344F400E31AD5FE1303F3FF7B
:1003E000E31803F8732600C0F32920C0330AD6416E
:1003F00063020E1AB70700831307300423A0E70037
:100400003727000093079007130717361305A0003E
:10041000B70600839305D000130717006386A72053
:1004200023A0F60083470700E39807FE330AD6416E
:100430009306C000130641009305000113050A004E
:10044000EF10C07283474100130741001306A0005C
:10045000B70600839305D000638C070013071700CD
:10046000638EC71C23A0F60083470700E39807FEAE
:10047000B70700831307D00023A0E7001307A000ED
:1004800023A0E7001307900423A0E700372700000C
:100490001307D7369307E0069305A000B70600833D
:1004A0001306D000130717006386B71623A0F600C3
:1004B00083470700E39807FE9306C0001306410038
:1004C0009305000133852941EF10406A83474100BD
:1004D000130741001306A000B70600839305D00060
:1004E000638C070013071700638CC71023A0F60066
:1004F00083470700E39807FEB70700831307D00080
:1005000023A0E7001307A00023A0E700130730048F
:1005100023A0E700372700001307973793078006CB
:100520009305A000B70600831306D0001307170039
:10053000638EB70A23A0F60083470700E39807FEFF
:100540009306C00013064100930500011305040043
:10055000EF10C06103474100930741001306A0005C
:10056000B70600839305D000630C0700938717003C
:10057000630AC70423A0E60003C70700E31807FEC9
:10058000B70700831307D00023A0E7001307A000DC
:1005900023A0E700638604003389294123A02401B6
:1005A0008320C112032481128324411203290112E2
:1005B0008329C11113050A00032A811113010113B4
:1005C0006780000023A0B60023A0E60003C7070051
:1005D000E31E07F8B70700831307D00023A0E70046
:1005E0001307A00023A0E7006FF0DFFA23A0C600E6
:1005F00023A0F60083470700E39A07F26FF05FF449
:1006000023A0B60023A0F60083470700E39C07EC75
:100610006FF09FEE23A0C60023A0F60083470700DB
:10062000E39207E86FF05FE923A0B60023A0F6008D
:1006300083470700E39207DE6FF05FDF23A0B60079
:1006400023A0F60083470700E39A07E06FF05FE21C
:10065000130101FEB707008313074006232E110084
:10066000232C81002320010023A0E700372700006E
:1006700013075738930750061306A000B7060083E8
:100680009305D00013071700638AC74C23A0F60018
:1006900083470700E39807FEB707008103A7070019
:1006A000B706C0FF9386F6FF3377D70023A0E70095
:1006B00083A607003707F0FF1307F7FFB3F6E6003E
:1006C00023A0D70037270000B70700839306A003B5
:1006D00023A0D7001304D759930700021307D75953
:1006E0001306A000B70600839305D0001307170078
:1006F000638CC74423A0F60083470700E39807FEF6
:100700009305010013050000EFF09FC29306C0009F
:100710001306410093050001EF1040458347410057
:1007200063840702130741001306A000B706008385
:100730009305D00013071700638EC73E23A0F60071
:1007400083470700E39807FEB70700831307D0002D
:1007500023A0E7001307A00023A0E700130740062B
:1007600023A0E70037270000130757399307300706
:100770001306A000B70600839305D00013071700E7
:100780006380C73A23A0F60083470700E39807FE7B
:100790009306C000130641009305A0001305000056
:1007A000EF10C03C834741006384070213074100F8
:1007B0001306A000B70600839305D00013071700A7
:1007C0006382C73C23A0F60083470700E39807FE37
:1007D000B70700831307000223A0E70037270000B4
:1007E0001307D739930700021306A000B70600834A
:1007F0009305D00013071700638CC73623A0F600BB
:1008000083470700E39807FE370700818327070027
:10081000B70640001306A000B3E7D7002320F70077
:10082000B70700831307A00323A0E700B7060083E0
:1008300013070400930700029305D0001307170065
:10084000638CC73423A0F60083470700E39807FEB4
:100850009305010013050000EFF09FAD9306C00063
:100860001306410093050001EF104030834741001B
:1008700063840702130741001306A000B706008334
:100880009305D000130717006382C73223A0F60038
:1008900083470700E39807FEB70700831307D000DC
:1008A00023A0E7001307A00023A0E70013074006DA
:1008B00023A0E700372700001307973A9307300774
:1008C0001306A000B70600839305D0001307170096
:1008D0006384C72223A0F60083470700E39807FE3E
:1008E0009306C000130641009305A0001305000005
:1008F000EF10C027834741006384070213074100BC
:100900001306A000B70600839305D0001307170055
:10091000638EC71E23A0F60083470700E39807FEF7
:10092000B70700831307000223A0E7003727000062
:100930001307173A930700021306A000B7060083B7
:100940009305D00013071700638EC71823A0F60085
:1009500083470700E39807FE3707008183270700D6
:10096000B70610001306A000B3E7D7002320F70056
:10097000B70700831307A00323A0E700B70600838F
:1009800013070400930700029305D0001307170014
:100990006380C71423A0F60083470700E39807FE8F
:1009A0009305010013050000EFF09F989306C00027
:1009B0001306410093050001EF10401B83474100DF
:1009C00063840702130741001306A000B7060083E3
:1009D0009305D000130717006382C70E23A0F6000B
:1009E00083470700E39807FEB70700831307D0008B
:1009F00023A0E7001307A00023A0E7001307900639
:100A000023A0E700372700001307573B9307E006B2
:100A10001306A000B70600839305D0001307170044
:100A20006384C70823A0F60083470700E39807FE06
:100A3000032501009306C000130641009305000141
:100A4000EF10C012034741006304070293074100FF
:100A50001306A000B70600839305D0009387170004
:100A6000630AC70223A0E60003C70700E31807FED6
:100A70008320C10103248101B70700831307D0003D
:100A800023A0E7001307A00023A0E7001301010241
:100A90006780000023A0B60023A0E60003C707007C
:100AA000E31E07FA6FF0DFFC23A0B60023A0F600D8
:100AB00083470700E39407F66FF09FF723A0B60083
:100AC00023A0F60083470700E39607F06FF0DFF1FD
:100AD00023A0B60023A0F60083470700E39807EAA7
:100AE0006FF01FEC23A0B60023A0F6008347070099
:100AF000E39A07E46FF05FE623A0B60023A0F600B8
:100B000083470700E39407DC6FF09FDD23A0B60066
:100B100023A0F60083470700E39A07DE6FF05FE04B
:100B200023A0B60023A0F60083470700E39807C47C
:100B30006FF01FC623A0B60023A0F600834707006E
:100B4000E39A07BE6FF05FC023A0B60023A0F600B3
:100B500083470700E39C07B86FF09FBA23A0B60055
:100B600023A0F60083470700E39E07B06FF0DFB2D3
:100B700023A0B60023A0F60083470700E39C07C626
:100B80006FF09FC823A0B60023A0F600834707009C
:100B9000E39607C26FF0DFC323A0B60023A0F600E0
:100BA00083470700E39C07C86FF09FCA23A0B600E5
:100BB00023A0F60083470700E39607CC6FF0DFCD54
:100BC000130101DD232611222324812223229122D5
:100BD00023202123232E3121232C4121232A51217B
:100BE000232861212326712123248121232291217D
:100BF0002320A121232EB11FB70700831307800DE7
:100C000023A2E700B70700821307F00323A4E7003D
:100C100023A0E7003707008183270700B7061000ED
:100C200037064000B3E7D7002320F70083260700EC
:100C30009307A0009305A000B3E6C6002320D700C9
:100C4000372700001307873CB70600831306D00040
:100C5000130717006382B77A23A0F60083470700C3
:100C6000E39807FEB70700831307000223A0E700FD
:100C7000372700001307173D930700029305A000D4
:100C8000B70600831306D000130717006380B778F8
:100C900023A0F60083470700E39807FEB70700404C
:100CA00003A7070F9305A000B7060083834707003B
:100CB0001306D000638C0700130717006382B77612
:100CC00023A0F60083470700E39807FEB7070083D9
:100CD0001307D00023A0E7009306A00023A0D700AD
:100CE00023A0E70023A0D700370700408347070071
:100CF0009305A00013070700B70600831306D00072
:100D0000638C0700130717006386B77223A0F600F1
:100D100083470700E39807FE37260000B7278001C6
:100D20009387873D930641071306465D93050004AC
:100D30001305010B232AF106232C0106EF10C01C1A
:100D40008347010B1307010B9305A000B70600832F
:100D50001306D000638C0700130717006386B76E75
:100D600023A0F60083470700E39807FEB70700407B
:100D70009387870F23A0070083A60700372700006B
:100D80001307F770634CD70083A6070093861600FD
:100D900023A0D70083A60700E358D7FE37070082B9
:100DA0009306E0032320D70023A0070083A60700B3
:100DB000372700001307F770634CD70083A607009E
:100DC0009386160023A0D70083A60700E358D7FE1A
:100DD000370700829306D0032320D70023A0070003
:100DE00083A60700372700001307F770634CD7006E
:100DF00083A607009386160023A0D70083A60700CA
:100E0000E358D7FE370700829306B0032320D700AC
:100E100023A0070083A60700372700001307F770F9
:100E2000634CD70083A607009386160023A0D70043
:100E300083A60700E358D7FE3707008293067003A6
:100E40002320D70023A0070083A607003727000030
:100E50001307F770634CD70083A60700938616002C
:100E600023A0D70083A60700E358D7FE37070082E8
:100E70009306F0022320D70023A0070083A60700D3
:100E8000372700001307F770634CD70083A60700CD
:100E90009386160023A0D70083A60700E358D7FE49
:100EA000370700829306F0012320D70023A0070014
:100EB00083A60700372700001307F770634CD7009D
:100EC00083A607009386160023A0D70083A60700F9
:100ED000E358D7FE370700829306F0032320D7009C
:100EE00023A0070083A60700372700001307F77029
:100EF000634CD70083A607009386160023A0D70073
:100F000083A60700E358D7FE370700822320070097
:100F100023A0070083A60700372700001307F770F8
:100F2000634CD70083A607009386160023A0D70042
:100F300083A60700E358D7FE370700829306F00325
:100F40002320D70023A0070083A60700372700002F
:100F50001307F770634CD70083A60700938616002B
:100F600023A0D70083A60700E358D7FEB7270000C9
:100F70009387C75E232AF1089307D0F9232CF10841
:100F800093071002232EF108372600009307F00381
:100F9000930641091306465F930500042324F10AD2
:100FA0001305010B9307204D2322D10A2320F10AB8
:100FB0002326010AEF0050758347010B1307010B2D
:100FC0009305A000B70600831306D000638C0700CA
:100FD00013071700E380B73823A0F6008347070004
:100FE000E39807FEB727000093879740232AF10074
:100FF000B72700009387D743232CF100B7270000C1
:1010000093875745232EF100B72700009387D746D3
:101010002320F102B7270000938757482322F102CB
:10102000B72700009387D7492324F102B727000090
:101030009387574B2326F102B72700009387D74C9D
:101040002328F102B72700009387574E232AF10285
:10105000B727000093871750232CF102B727000011
:101060009387D751232EF102B72700009387575358
:101070002320F104B7270000938717552322F1049A
:10108000B7270000938757572324F104B7270000A0
:101090009387975B372D0000B72C00002326F104BF
:1010A00093075D5C2326F10093871C5C2324F100E9
:1010B000B72700009387D75C2328F104B7270000E7
:1010C00093871736232AF104B72700009387D73672
:1010D000232CF104B727000093879737232EF104C0
:1010E000B707F0FFB72B000037240000B72400003B
:1010F000372C0000372A00009387F7FF938BDB41E2
:101100001304145A93844461130CDC5A130A5A5979
:10111000B70D0083130DD000930AD000930CA000EC
:10112000930900022328F10023A05D010327410158
:101130009307300523A09D0123A0FD0093075006CF
:1011400013071700E382970923A0FD0083470700D8
:10115000E39807FE23A0AD0123A09D0123A03D013C
:1011600013870B009307000213071700E38497050A
:1011700023A0FD0083470700E39807FE03278101B2
:1011800023A03D019307000213071700E38A97018C
:1011900023A0FD0083470700E39807FE0327C10152
:1011A00023A03D0193070002130717006380977F78
:1011B00023A0FD0083470700E39807FE03270102F1
:1011C00023A03D0193070002130717006386977B56
:1011D00023A0FD0083470700E39807FE0327410291
:1011E00023A03D019307000213071700638C977734
:1011F00023A0FD0083470700E39807FE0327810231
:1012000023A03D019307000213071700638297751F
:1012100023A0FD0083470700E39807FE0327C102D0
:1012200023A03D01930700021307170063889771FD
:1012300023A0FD0083470700E39807FE032701036F
:1012400023A03D019307000213071700638E976DDB
:1012500023A0FD0083470700E39807FE032741030F
:1012600023A03D0193070002130717006384976BC7
:1012700023A0FD0083470700E39807FE03278103AF
:1012800023A03D019307000213071700638A9767A5
:1012900023A0FD0083470700E39807FE0327C1034F
:1012A00023A03D0193070002130717006380976591
:1012B00023A0FD0083470700E39807FE03270104EE
:1012C00023A03D019307000213071700638697616F
:1012D00023A0FD0083470700E39807FE032741048E
:1012E00023A03D019307000213071700638C975D4D
:1012F00023A0FD0083470700E39807FE032781042E
:1013000023A03D0193070002130717006382975B38
:1013100023A0FD0083470700E39807FEB707C0FF3F
:101320009387F7FF1309A000130B90042320F10605
:1013300023A05D0123A09D0123A06D0113070A00D6
:101340009307F00413071700638A975523A0FD0045
:1013500083470700E39807FEB707008203A547000D
:101360009306C0001306C10793050001EF001000AB
:1013700023A0AD0123A09D0123A0AD01930730045C
:1013800023A09D0123A0FD00130704009307F0068E
:1013900013071700638A974F23A0FD0083470700B8
:1013A000E39807FEF32700C01307F0FFF32700C000
:1013B00083A70D00E38CE7FE1387F7FD1377F70F84
:1013C0009306D00593F7F70F63E6E600638697412F
:1013D00023A0FD0023A0AD0123A09D019387F7FC6E
:1013E00013072004636EF70893972700B387F40070
:1013F00083A707006780070023A0C60023A0F6008C
:1014000083470700E39607846FF0DF8523A0C600BB
:1014100023A0F60083470700E39807866FF01F8834
:1014200023A0C60023A0F60083470700E3960788A1
:101430006FF0DF8923A0C60023A0F60083470700D2
:10144000E392078C6FF05F8D23A0C60023A0F60007
:1014500083470700E39207906FF05F91B707008121
:1014600003A70700832601013377D70023A0E700F5
:1014700003A70700B70640003367D70023A0E700A3
:101480001309F9FFE31609EA6FF01FCA23A0AD01A3
:101490009307300523A09D0123A0FD0013070C0036
:1014A00093070005130717006382976123A0FD00CF
:1014B00083470700E39807FE0327C10423A03D01EB
:1014C00093070002130717006380975923A0FD00BC
:1014D00083470700E39807FEB707008183A707004B
:1014E00037074000B3F7E700639207580327C100AE
:1014F0009307F00423A0FD0093076004130717006F
:101500006380976523A0FD0083470700E39807FEEB
:101510000327010523A03D019307000213071700CD
:10152000638E974B23A0FD0083470700E39807FED7
:10153000B707008183A7070037071000B3F7E7005C
:101540006390074C0327C1009307F00423A0FD001C
:101550009307600413071700638C970123A0FD0015
:1015600083470700E38E07F013071700E39897FF00
:1015700023A0AD0123A0FD0083470700E39C07FCE7
:101580001309F9FFE31609DA6FF01FBAB7070081F4
:1015900003A70700832601061309F9FF3377D70055
:1015A00023A0E70003A70700832601013377D700B4
:1015B00023A0E700E31E09D66FF01FB71309F9FF58
:1015C000EFE09FC2E31609D66FF01FB6B7070081A0
:1015D00003A70700B70610003367D7006FF01FE9B5
:1015E000732500C0732820C0B7B7B912130E40018D
:1015F0009387170A9308011F130300101306010FA6
:1016000093060600138707009317D700B3C7E700B8
:1016100013D71701B3C7E7001397570033C7E70085
:101620002380E60093861600E390D8FE9307070018
:101630009306010F930E00001307000083C50600F8
:10164000638A05009305011FB385D5012380E5F06A
:10165000938E1E001307170093861600E31067FE93
:101660000327060013064600B3C7E700E39AC8FE47
:10167000130EFEFFE3140EF8732300C0F32820C0FE
:10168000832641051307300423A0ED0013079007BC
:10169000938616006306974323A0ED0003C7060058
:1016A000E31807FE9306C0001306810893050001A6
:1016B0003305A340232611072324F1062322010723
:1016C000EF00C04A034781080328410683278106AB
:1016D0008328C10693068108630C070093861600D1
:1016E000630A973F23A0ED0003C70600E31807FE37
:1016F00023A0AD018326810523A09D0123A06D01B8
:101700001307E006938616006300973F23A0ED00C1
:1017100003C70600E31807FE9306C00013068108FE
:1017200093050001338508412322F106EF000044B0
:10173000034781088327410693068108630C07004D
:1017400093861600630C973B23A0ED0003C70600A9
:10175000E31807FE23A0AD018326C105130730045B
:1017600023A09D0123A0ED00130780069386160099
:101770006300973B23A0ED0003C70600E31807FEB4
:10178000138507009306C000130681089305000126
:10179000EF00C03D8347810813078108638C070071
:1017A000130717006380973923A0FD0083470700C4
:1017B000E39807FE23A0AD0123A09D011309F9FFC3
:1017C000E31809B66FF05F961309F9FFEFE05FE8E1
:1017D000E31009B66FF05F9523A0AD016FF05FBF16
:1017E00037070082832707001309F9FF93C7070211
:1017F0002320F700E31E09B26FF01F933707008222
:10180000832707001309F9FF93C707012320F70077
:10181000E31009B26FF05F9137070082832707005A
:101820001309F9FF93C787002320F700E31209B0DB
:101830006FF09F8F37070082832707001309F9FF96
:1018400093C747002320F700E31409AE6FF0DF8D44
:1018500037070082832707001309F9FF93C7270082
:101860002320F700E31609AC6FF01F8C37070082C6
:10187000832707001309F9FF93C717002320F700F8
:10188000E31809AA6FF05F8A23A0AD0123A0FD0031
:1018900083470700E39E07AE6FF0DFB023A0AD01E2
:1018A00023A0FD0083470700E39E07A86FF0DFAA8F
:1018B00023A0AD0123A0FD0083470700E39607A402
:1018C0006FF0DFA523A0AD0123A0FD008347070033
:1018D000E39C07A06FF09FA223A0AD0123A0FD0011
:1018E00083470700E392079E6FF05F9F23A0AD013F
:1018F00023A0FD0083470700E398079A6FF01F9C21
:1019000023A0AD0123A0FD0083470700E39E0796B7
:101910006FF0DF9823A0AD0123A0FD0083470700EF
:10192000E39407946FF09F9523A0AD0123A0FD00E1
:1019300083470700E39A07906FF05F9223A0AD0101
:1019400023A0FD0083470700E390078E6FF01F8FF1
:1019500023A0AD0123A0FD0083470700E396078A7B
:101960006FF0DF8B23A0AD0123A0FD0083470700AC
:10197000E39C07866FF09F8823A0AD0123A0FD00A4
:1019800083470700E39207846FF05F8523A0AD01D2
:1019900023A0FD0083470700E39807806FF01F82B4
:1019A00023A0AD0123A0FD0083470700639E07FC31
:1019B0006FF0CFFE23A0AD0123A0FD0083470700F9
:1019C000639407FA6FF08FFB23A0AD0123A0FD0005
:1019D00083470700639607F66FF0CFF723A0AD01AA
:1019E00023A0FD0083470700E39A07B2B7070081F1
:1019F00083A7070037071000B3F7E700E38407B4B5
:101A0000032781009307F00423A0FD009307E0045F
:101A100013071700638C970123A0FD00834707007D
:101A2000E38007A613071700E39897FF23A0AD01F3
:101A300023A0FD0083470700E39C07FC1309F9FF7F
:101A4000E318098E6FF04FEE23A0AD0123A0FD0037
:101A500083470700E39807A6B707008183A707001D
:101A600037074000B3F7E700E38207A803278100A8
:101A70009307F00423A0FD009307E0041307170069
:101A8000638C970123A0FD0083470700E38207A82A
:101A900013071700E39897FF23A0AD0123A0FD00D3
:101AA00083470700E39C07FC6FF09FA623A0AD01CE
:101AB00023A0FD0083470700E396079E6FF0DF9F9A
:101AC00023A0AD0123A0ED0003C70600E31207BC6D
:101AD0006FF05FBD23A0AD0123A0ED0003C706009A
:101AE000E31E07BE6FF0DFC023A0AD0123A0ED0011
:101AF00003C70600E31807C06FF01FC223A0AD01A3
:101B000023A0ED0003C70600E31C07C26FF09FC4CB
:101B100023A0AD0123A0ED0003C70600E31807C40E
:101B20006FF01FC623A0AD0123A0FD00834707006F
:101B3000E39807C623A0AD0123A09D016FF01FC845
:101B400023A0AD0123A0FD0083470700E398079A77
:101B50006FF01F9C23A0C60023A0F6008347070058
:101B6000639807C66FF00FC867800000130101FD7E
:101B70002324810223229102232E3101232C4101AF
:101B80002326110223202103232A51012328610146
:101B90002322010023240100231601001304050061
:101BA00093840500130A060093890600634E052CF2
:101BB00037290000EFE04FE0130989723305A900CF
:101BC000034B0500630E04329385040013050400E3
:101BD000EFE04FD69385040013040500EFE0CFDD5E
:101BE0003305A90083470500630E041493850400A0
:101BF00013050400A302F100EFE0CFD393850400A6
:101C0000930A0500EFE04FDB3305A9008347050089
:101C10001304000063880A129385040013850A00E8
:101C20002303F100EFE00FD193850400930A050030
:101C3000EFE08FD83305A90083470500638C0A0EB7
:101C40009385040013850A00A303F100EFE08FCE13
:101C500093850400930A0500EFE00FD63305A90031
:101C60008347050063880A0C9385040013850A00E6
:101C70002304F100EFE00FCC93850400930A0500E4
:101C8000EFE08FD33305A9008347050063840A0A78
:101C90009385040013850A00A304F100EFE08FC9C7
:101CA00093850400930A0500EFE00FD13305A900E6
:101CB0008347050063800A089385040013850A00A2
:101CC0002305F100EFE00FC793850400930A050098
:101CD000EFE08FCE3305A90083470500638C0A042B
:101CE0009385040013850A00A305F100EFE08FC47B
:101CF00093850400930A0500EFE00FCC3305A9009B
:101D00008347050063880A029385040013850A004F
:101D10002306F100EFE00FC2938504009304050051
:101D2000EFE08FC93309A9008347090063840400E9
:101D3000A306F100630804009307D0022300FA0011
:101D400013041000B3078A009386F9FF1387070076
:101D50006356D4100347D100630C0700130414002A
:101D60002380E700B3078A00138707006358D40E67
:101D70000347C100630C0700130414002380E7002D
:101D8000B3078A0013870700635AD40C0347B100D6
:101D9000630C0700130414002380E700B3078A00D4
:101DA00013870700635CD40A0347A100630C070094
:101DB000130414002380E700B3078A001387070089
:101DC000635ED40803479100630C070013041400FA
:101DD0002380E700B3078A00138707006350D40805
:101DE00003478100630C0700130414002380E700FD
:101DF000B3078A00138707006352D40603477100B4
:101E0000630C0700130414002380E700B3078A0063
:101E1000138707006354D40403476100630C070071
:101E2000130414002380E700B3078A001387070018
:101E30006356D402034751006300070C13041400D7
:101E40002380E70033078A00635AD40063080B003D
:101E5000130414002300670133078A0023000700DE
:101E60008320C10203248102832441020329010249
:101E70008329C101032A8101832A4101032B010126
:101E800013010103678000003304A0401305040020
:101E900037290000EFE04FB213098972B307A90098
:101EA000938504001305040003CB0700EFE08FA81F
:101EB0009385040013040500EFE00FB03305A9007B
:101EC00083470500E30A04E6938504001305040034
:101ED000A302F100EFE00FA693850400930A05002A
:101EE000EFE08FAD3305A90083470500E3860AE4E0
:101EF000130410006FF05FD2138707006FF01FF517
:101F0000130B00036FF01FE4130101FB232861038F
:101F10002326110423248104232291042320210554
:101F2000232E3103232C4103232A5103232671033B
:101F300023248103232291032320A103232EB10113
:101F40002300050083470600130B05006384074048
:101F500093090600138C0500938C060013090000FA
:101F6000930B000093040500930A5002130D3007F1
:101F7000930D40061308F00693088007130320060C
:101F8000130E00076F0080021309190013070A00DF
:101F90002380F400B3042B01138A09001384040086
:101FA0009309070083471A00638E07041384040013
:101FB000138A1900E39A57FD83C719006384070445
:101FC00093892900638257096388A70B6386B71337
:101FD000638C071B638417236380672A6380C73180
:101FE00013071900238054013307EB002300F70087
:101FF00083471A0013092900B3042B01138404003A
:10200000E39607FA230004008320C104032481041B
:10201000832441048329C103032A8103832A4103C2
:10202000032B0103832BC102032C8102832C410269
:10203000032D0102832DC1011305090003290104A9
:10204000130101056780000033072C411307F7FFD8
:10205000635EE00623805401130919009307100002
:1020600093861400B3042B016304F706A300040055
:10207000138404006FF01FF393972B00B3062C41D9
:10208000B387FC009386F6FF03A6070093070000C2
:10209000634CD0006F00801A2300E4009387170080
:1020A00013041400638CD7023307F60003470700BC
:1020B000E31407FE3309F9002300040033042B0165
:1020C00093040400938B1B006FF0DFED93860400F4
:1020D00023800600138404006FF0DFEC3309F9005D
:1020E000B3042B019307040023800700138404002A
:1020F000938B1B006FF01FEB93972B00B387FC00B3
:1021000003A50700130641009306C0009305A00035
:10211000EFF0DFA533062C411306F6FF93074100CD
:10212000130700001308F006930880071303200626
:10213000130E0007634CC0006F0040102300D40052
:1021400013071700130414006304E60283C6070094
:1021500093871700E39406FE3309E9002300040087
:1021600033042B0193040400938B1B006FF09FE357
:102170003309C90093070400B3042B01138404003E
:10218000238007006FF0DFF693972B00B387FC00E6
:1021900003A50700130641009306C00093058000C5
:1021A000EFF0DF9C33062C411306F6FF9307410046
:1021B000130700001308F006930880071303200696
:1021C000130E0007634CC0006F0040072300D400CB
:1021D0001307170013041400E30CE6F883C6070086
:1021E00093871700E39406FE3309E90023000400F7
:1021F00033042B01930404006FF01FF793972B0017
:10220000B387FC0003A50700130641009306C00036
:1022100093050001EFF09F9533062C411306F6FF5E
:1022200093074100130700001308F0069308800786
:1022300013032006130E00076340C00293870400B7
:10224000238007006FF0DFEA2300D4001307170094
:1022500013041400E30EE6F083C60700938717000B
:10226000E39406FE3309E9002300040033042B0144
:10227000930404006FF05FEF93972B00B387FC008B
:1022800003A50700130641009306C0009305200034
:10229000EFF0DF8D33062C411306F6FF9307410064
:1022A000130700001308F0069308800713032006A5
:1022B000130E0007634CC0006FF05FF82300D400DA
:1022C0001307170013041400E304E6EA83C60700AB
:1022D00093871700E39406FE6FF01FE813952B0019
:1022E000130641009306C000930500013385AC003E
:1022F000EFF0DF8733062C411306F6FF930741000A
:10230000130700001308F006930880071303200644
:10231000130E0007634CC0006FF05FF22300D4007F
:102320001307170013041400630AC70083C60700CD
:1023300093871700E39406FE6FF01FE23309E9006C
:1023400093070400B3042B011384040023800700C7
:102350006FF01FDA13040500130900006FF09FCA25
:102360004379636C65733A2030780000496E73746A
:102370006E733A203078000043686B73756D3A20B5
:102380003078000064656661756C74202020202020
:1023900020202000647370692D0000002020202080
:1023A0002020202020000000647370692D63726D6E
:1023B0002D000000696E73746E7320202020202091
:1023C0002020203A200000000A0A0A0A0A0A000017
:1023D00020202020202020202020204C69636865B8
:1023E000652054616E67204E616E6F2D394B2062FF
:1023F0007920506574657220476C656E2C2042759B
:10240000696C643A2000000053656C656374206158
:102410006E20616374696F6E3A0A00002020205BB1
:10242000305D2052756E206D61696E206170702084
:10243000286B696F736B290A000000002020205B65
:10244000315D20546F67676C65206C656420310ACC
:10245000000000002020205B325D20546F67676C15
:1024600065206C656420320A000000002020205B9B
:10247000335D20546F67676C65206C656420330A98
:10248000000000002020205B345D20546F67676CE3
:1024900065206C656420340A000000002020205B69
:1024A000355D20546F67676C65206C656420350A64
:1024B000000000002020205B365D20546F67676CB1
:1024C00065206C656420360A000000002020205B37
:1024D000465D2047657420666C617368206D6F648B
:1024E000650A00002020205B495D20526561642060
:1024F00053504920666C6173682049440A0000000B
:102500002020205B535D205365742053696E676CF7
:102510006520535049206D6F64650A002020205BC0
:10252000445D205365742044535049206D6F6465A9
:102530000A0000002020205B435D20536574204486
:102540005350492B43524D206D6F64650A000000C3
:102550002020205B425D2052756E2073696D706C87
:1025600069737469632062656E63686D61726B0A7A
:10257000000000002020205B415D2042656E636802
:102580006D61726B20616C6C20636F6E666967733E
:102590000A000000494F2053746174653A2000001E
:1025A000436F6D6D616E643E200000005350492002
:1025B00053746174653A0A00202044535049200046
:1025C0004F4E0A004F46460A0000000020204352AA
:1025D0004D202000436C6F636B20667265717565DA
:1025E0006E63793A2025640A000000000A48656C91
:1025F0006C6F000025733A2025323220256420308C
:1026000078257820306225622025702030256F20C3
:1026100025250A006C18000050180000341800002E
:1026200018180000FC170000E017000080140000DC
:10263000801400008014000080140000801400004A
:10264000801400008014000080140000801400003A
:1026500080140000C8170000E0150000CC15000031
:102660005C140000801400008C1400008014000032
:1026700080140000BC1500008014000080140000CD
:1026800080140000801400008014000080140000FA
:102690008014000080140000801400008C150000DD
:1026A00080140000801400008014000080140000DA
:1026B00080140000801400008014000080140000CA
:1026C00080140000801400008014000080140000BA
:1026D00080140000C8170000E0150000CC150000B1
:1026E0005C140000801400008C14000080140000B2
:1026F00080140000BC15000080140000801400004D
:102700008014000080140000801400008014000079
:102710008014000080140000801400008C1500005C
:10272000322E332E38000000303132333435363714
:1027300038396162636465666768696A6B6C6D6E7F
:102740006F707172737475767778797A0000000013
:1027500020202020205F5F5F5F2020202020205F3E
:102760002020202020202020202020202020205F2A
:102770005F5F5F205F0A202020207C20205F205C9C
:10278000205F5F5F7C207C5F205F5F5F205F205F5A
:102790005F2020202F205F5F5F7C207C205F5F5FB9
:1027A000205F205F5F0A202020207C207C5F292082
:1027B0002F205F205C205F5F2F205F205C20275F41
:1027C0005F7C207C207C20205F7C207C2F205F2071
:1027D0005C20275F205C0A202020207C20205F5F77
:1027E0002F20205F5F2F207C7C20205F5F2F207CAC
:1027F000202020207C207C5F7C207C207C20205F8F
:102800005F2F207C207C207C0A202020207C5F7C85
:102810002020205C5F5F5F7C5C5F5F5C5F5F5F7C54
:102820005F7C20202020205C5F5F5F5F7C5F7C5CA2
:102830005F5F5F7C5F7C207C5F7C0A0A0000000099
:08284000202700005400008075
:00000001FF
