:100000006F00000A1300000013000000130000003E
:10001000232E11FE232C51FE232A61FE232871FE7C
:100020002326A1FE2324B1FE2322C1FE2320D1FEDC
:10003000232EE1FC232CF1FC232A01FD232811FDB2
:100040002326C1FD2324D1FD2322E1FD2320F1FD40
:10005000130101FCEF2050088320C1038322810398
:1000600003234103832301030325C1028325810266
:1000700003264102832601020327C1018327810150
:100080000328410183280101032EC100832E810032
:10009000032F4100832F010013010104730020305E
:1000A0009701004093810176138101C1173500004B
:1000B000130585BA970500409385C5F413864180E2
:1000C00063DCC5008326050023A0D5001305450089
:1000D00093854500E3C8C5FE170500401305C5F22A
:1000E00097050040938585F26308B500232005003D
:1000F000130545006FF05FFF173500001305C5B508
:100100001301C1FF97350000938505B5630EB50057
:1001100083260500130545002320A100E780060083
:10012000032501006FF01FFE13014100EF1000478F
:100130006F000000130101FEB7070081232C81002E
:1001400003A4070003A70700B706C0FF9386F6FFC6
:100150003377D700232E110023A0E700B707004014
:1001600083A707001307F0092326E1001306000008
:1001700037074000930540001305C1003374E400C5
:10018000E780070093070002370600832320F6006C
:100190000347D100B73700009387C78D93564700B8
:1001A000B386D70083C606009305A0006388B61007
:1001B0001377F7003387E70003470700370600830C
:1001C0002320D6009306A000630CD71037060083C7
:1001D0002320E600130700022320E6000347E10086
:1001E0009305A00093564700B386D70083C6060048
:1001F0006380B6121377F7003387E70003470700E1
:10020000370600832320D6009306A000630CD70E88
:10021000370600832320E600130700022320E600B0
:100220000347F1009305A00093564700B386D7001B
:1002300083C606006382B60C1377F700B387E70026
:1002400003C70700B707008323A0D7009306A000C9
:10025000630ED708B707008323A0E7001307D00079
:1002600023A0E7001307A00023A0E7006304040213
:1002700037070081832707008320C1010324810100
:10028000B7064000B3E7D7002320F70013010102AF
:1002900067800000B706008183A706003707C0FF0C
:1002A0008320C101032481011307F7FFB3F7E7009F
:1002B00023A0F60013010102678000001377F70006
:1002C0003387E7009305D000034707002320B600DB
:1002D000370600832320D6009306A000E318D7EE4C
:1002E0009306D0002320D6006FF05FEE9306D00077
:1002F00023A0D7006FF01FF69305D0002320B6008F
:100300006FF09FF39306D0002320D6006FF05FF0CC
:100310009305D0002320B6006FF0DFED130101F04C
:10032000930F0500938E0500F32200C0732F20C0A9
:10033000B7B7B912130E40019387170A13080110BB
:100340001303001013060100930601001397D70052
:100350003347F70093571701B3C7E70013975700C8
:10036000B347F7002380F60093861600E310D8FE0B
:1003700093060100930500001307000003C5060063
:1003800093080110B388B800938616006306050031
:100390002380E8F09385150013071700E31067FE2C
:1003A0000327060013064600B3C7E700E31A06FF5B
:1003B000130EFEFFE3180EF8732800C0F32520C0CB
:1003C00033055840638E0F46370700839306300489
:1003D0002320D700B73600009386168F13079007A7
:1003E0009308A000370600831305D00093861600FB
:1003F0006302174B2320E60003C70600E31807FE3D
:1004000033055840373700001307C78D9356C50191
:10041000B306D70003C806009306A0006304D8748F
:100420009356850193F6F600B306D70003C606007F
:10043000B706008323A00601130800036306060124
:100440001308A000630006519356450193F6F60089
:10045000B306D70003C80600B706008323A0C60072
:10046000130600036306C8001306A0006302C85009
:100470009356050193F6F600B306D70003C60600AF
:10048000B706008323A006011308000363060601D4
:100490001308A000630406519356C50093F6F600B6
:1004A000B306D70003C80600B706008323A0C60022
:1004B000130600036306C8001306A0006306C850B5
:1004C0009356850093F6F600B306D70003C60600E0
:1004D000B706008323A00601130800036306060184
:1004E0001308A000630806519356450093F6F600E2
:1004F000B306D70083C60600370800832320C80050
:10050000130600036386C6001306A000638AC65064
:100510001376F5003306C70003460600370800834C
:100520002320D800930600036306D6009306A0009C
:10053000630CD650B706008323A0C6001306D00074
:1005400023A0C6001306A00023A0C6001306900433
:1005500023A0C600373600001306D68F9306E006A8
:100560001303A000370800839308D0001306160079
:100570006382662E2320D80083460600E39806FE99
:10058000B386E54113D6C6013306C700034806000B
:100590001306A0006300C86013D686011376F60028
:1005A0003306C70083480600370600832320060170
:1005B00013080003638608011308A000638C084930
:1005C00013D646011376F6003306C700034806002B
:1005D00037060083232016019308000363061801E1
:1005E0009308A000630E184913D606011376F6008F
:1005F0003306C70083480600370600832320060120
:1006000013080003638608011308A0006380084BE9
:1006100013D6C6001376F6003306C700034806005B
:100620003706008323201601930800036306180190
:100630009308A0006302184B13D686001376F600C9
:100640003306C700834806003706008323200601CF
:1006500013080003638608011308A0006384084B95
:1006600013D646001376F6003306C700034806008B
:100670003706008323201601930800036306180140
:100680009308A0006306184B93F6F600B306D70054
:1006900003C60600B706008323A006011308000363
:1006A000630606011308A0006308064BB706008323
:1006B00023A0C6001306D00023A0C6001306A00086
:1006C00023A0C6001306300423A0C600373600005E
:1006D00013069690930680061303A0003708008344
:1006E0009308D00013061600638C66182320D800E8
:1006F00083460600E39806FE93D6C701B306D700EB
:1007000003C80600930600036306D8009306A00002
:100710006302D82293D6870193F6F600B306D7007A
:1007200003C60600B706008323A0060113080003D2
:10073000630606011308A0006308061F93D647014D
:1007400093F6F600B306D70003C80600B706008389
:1007500023A0C600130600036306C8001306A0000A
:10076000630EC81A93D6070193F6F600B306D700B6
:1007700003C60600B706008323A006011308000382
:10078000630606011308A0006304061993D6C70088
:1007900093F6F600B306D70003C80600B706008339
:1007A00023A0C600130600036306C8001306A000BA
:1007B000630AC81493D6870093F6F600B306D700F1
:1007C00003C60600B706008323A006011308000332
:1007D000630606011308A0006300061393D64700C2
:1007E00093F6F600B306D70083C6060037080083E9
:1007F0002320C800130600036386C6001306A0006A
:100800006386C60E93F7F7003307F7000347070028
:10081000B707008323A0D700930600036306D70021
:100820009306A0006302D70AB707008323A0E7005E
:100830001307D00023A0E7001307A00023A0E700C0
:1008400063860E00B385E54123A0BE0013010110AD
:1008500067800000232018012320D800834606006B
:10086000E39606D0B386E54113D6C6013306C7002A
:10087000034806001306A000E310C8D26F008031C1
:10088000232018012320D80083460600E39C06E4B9
:100890006FF09FE62320A6002320E60003C7060092
:1008A000E31607B433055840373700001307C78DE8
:1008B0009356C501B306D70003C806009306A000EF
:1008C000E310D8B66F00002A9306D00023A0D7000B
:1008D000B707008323A0E7001307D00023A0E70099
:1008E0001307A00023A0E7006FF09FF51306D000C8
:1008F0002320C8006FF01FF11308D00023A00601C9
:100900006FF0DFED1306D00023A0C6006FF09FEA62
:100910001308D00023A006016FF05FE71306D00094
:1009200023A0C6006FF01FE41308D00023A0060127
:100930006FF0DFE0B70600831306D00023A0C600E7
:100940006FF05FDD1308D00023A006019356450128
:1009500093F6F600B306D70003C80600B706008377
:1009600023A0C60013060003E310C8B06FF05FB009
:100970001306D00023A0C6009356050193F6F60097
:10098000B306D70003C60600B706008323A00601FE
:1009900013080003E31E06AF6FF01FB01308D0006A
:1009A00023A006019356C50093F6F600B306D700C0
:1009B00003C80600B706008323A0C6001306000381
:1009C000E31CC8AE6FF0DFAF1306D00023A0C60053
:1009D0009356850093F6F600B306D70003C60600CB
:1009E000B706008323A0060113080003E31A06AF2D
:1009F0006FF09FAF1308D00023A006019356450067
:100A000093F6F600B306D70083C6060037080083C6
:100A10002320C80013060003E398C6AE6FF05FAF53
:100A20001306D0002320C8001376F5003306C70054
:100A300003460600370800832320D80093060003EE
:100A4000E316D6AE6FF01FAF9306D0002320D80078
:100A50006FF05FAE1308D0002320060113D64601C5
:100A60001376F6003306C7000348060037060083F6
:100A70002320160193080003E31418B76FF0DFB6C4
:100A80009308D0002320160113D606011376F60032
:100A90003306C7008348060037060083232006017B
:100AA00013080003E39208B76FF09FB61308D00055
:100AB0002320060113D6C6001376F6003306C700BE
:100AC000034806003706008323201601930800031D
:100AD000E31018B76FF05FB69308D000232016011B
:100AE00013D686001376F6003306C7008348060047
:100AF000370600832320060113080003E39E08B590
:100B00006FF01FB61308D0002320060113D646004D
:100B10001376F6003306C700034806003706008345
:100B20002320160193080003E31C18B56FF0DFB50E
:100B300093F6F600B306D7009308D00023201601E1
:100B400003C60600B706008323A0060113080003AE
:100B5000E31A06B56FF09FB51308D00023A0060175
:100B60006FF0DFB4B70600831306D00023A0C600E1
:100B70009356850193F6F600B306D70003C6060028
:100B8000B706008323A0060113080003E31A068BAF
:100B90006FF09F8B370600839308D0002320160147
:100BA00013D686011376F6003306C7008348060085
:100BB000370600832320060113080003E39E089FE5
:100BC0006FF01FA0130101FEB70700831307400653
:100BD000232E1100232C8100232A910023260100BB
:100BE00023A0E700373700001307579193075006FB
:100BF0001306A000B70600839305D0001307170063
:100C0000E38CC70223A0F60083470700E39807FEA2
:100C1000B707008103A70700B706C0FF9386F6FF5A
:100C20003377D70023A0E70083A607003707F0FF3C
:100C30001307F7FFB3F6E60023A0D700373700000D
:100C4000B70700839306A00323A0D700930417B12E
:100C500093070002130717B11306A000B70600831D
:100C60009305D00013071700638EC77A23A0F60000
:100C700083470700E39807FE9305C10013050000B2
:100C8000EFF0CFE9373400001304C48D9357C5014A
:100C9000B307F40083C607009307A0006398F6002B
:100CA000B70700831307D00023A0E70093578501FF
:100CB00093F7F700B307F40003C70700B7070083F3
:100CC00023A0D700930600036306D7009306A00075
:100CD000E300D70C9357450193F7F700B307F400EF
:100CE00083C60700B707008323A0E70013070003AC
:100CF0006386E6001307A000E386E6089357050124
:100D000093F7F700B307F40003C70700B7070083A2
:100D100023A0D700930600036306D7009306A00024
:100D2000E30CD7049357C50093F7F700B307F4001B
:100D300083C60700B707008323A0E700130700035B
:100D40006386E6001307A000E382E602935785005E
:100D500093F7F700B307F40003C70700B707008352
:100D600023A0D700930600036306D7009306A000D4
:100D70006308D77E9357450093F7F700B307F40055
:100D800083C70700B706008323A0E600130700030C
:100D90006386E7001307A000638EE77A1375F500FA
:100DA0003305A40003470500B706008323A0F6001F
:100DB000930700036306F7009307A0006306F77824
:100DC000B707008323A0E7001307D00023A0E700A4
:100DD0001307A00023A0E7001307400623A0E700A5
:100DE0003737000013075792930730071306A00008
:100DF000B70600839305D00013071700638AC76006
:100E000023A0F60083470700E39807FEB707008397
:100E10001307000323A0E7001307000223A0E70045
:100E2000373700001307D792930700021306A0007C
:100E3000B70600839305D000130717006380C75CD3
:100E400023A0F60083470700E39807FE37070081D9
:100E500083270700B70640001306A000B3E7D700BA
:100E60002320F700B70700831307A00323A0E700A0
:100E7000B706008313870400930700029305D00090
:100E8000130717006382C75623A0F60083470700A5
:100E9000E39807FE9305C10013050000EFF00FC8AB
:100EA0009357C501B307F40083C607009307A0005A
:100EB0006398F600B70700831307D00023A0E7006C
:100EC0009357850193F7F700B307F40003C70700B2
:100ED000B707008323A0D700930600036306D7005B
:100EE0009306A000630CD7649357450193F7F7006E
:100EF000B307F40083C60700B707008323A0E70009
:100F0000130700036386E6001307A0006382E6620E
:100F10009357050193F7F700B307F40003C70700E1
:100F2000B707008323A0D700930600036306D7000A
:100F30009306A0006308D75E9357C50093F7F700A8
:100F4000B307F40083C60700B707008323A0E700B8
:100F5000130700036386E6001307A000638EE65ABA
:100F60009357850093F7F700B307F40003C7070012
:100F7000B707008323A0D700930600036306D700BA
:100F80009306A0006304D7589357450093F7F700E2
:100F9000B307F40083C70700B706008323A0E60069
:100FA000130700036386E7001307A000638AE75472
:100FB0001375F5003305A40003470500B706008349
:100FC00023A0F600930700036306F7009307A00031
:100FD0006302F752B707008323A0E7001307D0008E
:100FE00023A0E7001307A00023A0E7001307400693
:100FF00023A0E700373700001307979393073007C4
:101000001306A000B70600839305D000130717004E
:101010006382C73C23A0F60083470700E39807FEDE
:10102000B70700831307000323A0E700130700029C
:1010300023A0E70037370000130717939307000238
:101040001306A000B70600839305D000130717000E
:101050006388C73623A0F60083470700E39807FE9E
:101060003707008183270700B70610001306A0008A
:10107000B3E7D7002320F700B70700831307A003C7
:1010800023A0E700B706008313870400930700023C
:101090009305D00013071700638AC73023A0F6001A
:1010A00083470700E39807FE9305C100130500007E
:1010B000EFF0CFA69357C501B307F40083C607002E
:1010C0009307A0006398F600B70700831307D000CA
:1010D00023A0E7009357850193F7F700B307F400C7
:1010E00003C70700B707008323A0D70093060003B8
:1010F0006306D7009306A0006308D73E93574501C7
:1011000093F7F700B307F40083C60700B70700831F
:1011100023A0E700130700036386E6001307A0007F
:10112000638EE63A9357050193F7F700B307F4008F
:1011300003C70700B707008323A0D7009306000367
:101140006306D7009306A0006304D7389357C50001
:1011500093F7F700B307F40083C60700B7070083CF
:1011600023A0E700130700036386E6001307A0002F
:10117000638AE6349357850093F7F700B307F400CA
:1011800003C70700B707008323A0D7009306000317
:101190006306D7009306A0006300D732935745003B
:1011A00093F7F700B307F40083C70700B70600837F
:1011B00023A0E600130700036386E7001307A000DF
:1011C0006386E72E1375F5003305A4000347050079
:1011D000B706008323A0F600930700036306F70019
:1011E0009307A000630EF72AB707008323A0E70048
:1011F0001307D00023A0E7001307A00023A0E700F7
:101200001307900623A0E700373700001307579411
:101210009307E0061306A000B70600839305D000ED
:1012200013071700638AC71623A0F6008347070039
:10123000E39807FE8326C1009307A00013D7C601D9
:101240003307E400034607006318F600B70700837E
:101250001307D00023A0E70093D7860193F7F70088
:10126000B307F40003C70700B707008323A0C70034
:10127000130600036306C7001306A000630CC72013
:1012800093D7460193F7F700B307F40003C60700AE
:10129000B707008323A0E700130700036306E600F7
:1012A0001307A0006302E61E93D7060193F7F70029
:1012B000B307F40003C70700B707008323A0C700E4
:1012C000130600036306C7001306A0006308C71ACD
:1012D00093D7C60093F7F700B307F40003C60700DF
:1012E000B707008323A0E700130700036306E600A7
:1012F0001307A000630EE61693D7860093F7F70056
:10130000B307F40003C70700B707008323A0C70093
:10131000130600036306C7001306A0006304C71486
:1013200093D7460093F7F700B307F40003C607000E
:10133000B707008323A0E700130700036306E60056
:101340001307A000630AE61093F7F6003304F400D5
:1013500003470400B707008323A0C70093060003D8
:101360006306D7009306A0006302D70EB707008379
:1013700023A0E7008320C101032481011307D000CB
:1013800023A0E7001307A00023A0E7008324410166
:10139000130101026780000023A0B60023A0F6001D
:1013A00083470700E39E07E66FF0DFE823A0B6005F
:1013B00023A0F60083470700E39E07CC6FF0DFCE43
:1013C00023A0B60023A0F60083470700E39007C8D8
:1013D0006FF01FC923A0B60023A0F60083470700C3
:1013E000E39607C26FF0DFC323A0B60023A0F60088
:1013F00083470700E39607A86FF0DFA923A0B60094
:1014000023A0F60083470700E39807A26FF01FA40C
:1014100023A0B60023A0F60083470700E39E079CA5
:101420006FF0DF9E23A0B60023A0F60083470700DD
:10143000E39A07826FF05F8423A0B60023A0F60032
:1014400083470700639C07FA6FF08FFC9306D00078
:1014500023A0D7006FF09FF11307D00023A0E7006F
:101460006FF09FEE1306D00023A0C7006FF05FEB74
:101470001307D00023A0E7006FF01FE81306D00089
:1014800023A0C7006FF0DFE41307D00023A0E7001C
:101490006FF09FE11306D00023A0C7006FF05FDE5E
:1014A0009307D00023A0F6006FF01FD41307D000DD
:1014B00023A0E6006FF01FD19306D00023A0D70031
:1014C0006FF0DFCD1307D00023A0E7006FF09FCAB5
:1014D0009306D00023A0D7006FF05FC71307D0009A
:1014E00023A0E7006FF01FC49306D00023A0D7000D
:1014F0006FF0DFC09307D00023A0F6006FF09FAD20
:101500001307D00023A0E6006FF09FAA9306D00037
:1015100023A0D7006FF05FA71307D00023A0E70038
:101520006FF01FA49306D00023A0D7006FF0DFA0B8
:101530001307D00023A0E7006FF09F9D9306D00013
:1015400023A0D7006FF05F9A9307D00023A0F60086
:101550006FF01F871307D00023A0E6006FF01F84F1
:101560009306D00023A0D7006FF0DF801307D000D0
:1015700023A0E7006FF08FFD9306D00023A0D700D3
:101580006FF04FFA1307D00023A0E7006FF00FF7BA
:101590009306D00023A0D7006FF0CFF3130101E72B
:1015A000232611182324811823229118232021197E
:1015B000232E3117232C4117232A51172328611773
:1015C0002326711723248117232291172320A11783
:1015D000232EB115B70600839307800D23A2F600D2
:1015E0001307F003B707008223A4E70023A0E70056
:1015F000B707008103A70700370610009305A00076
:101600003367C70023A0E70003A7070037064000A1
:101610003367C70023A0E7009307C00537370000F2
:1016200023A0F600130797959307E0061306D00052
:10163000130717006386B76E23A0F60083470700E1
:10164000E39807FEB70700831307000223A0E70013
:101650003737000013071796930700029305A00081
:10166000B70600831306D000130717006384B76C16
:1016700023A0F60083470700E39807FEB70700831F
:101680001307D00023A0E7001307A00023A0E70062
:10169000B70700409387470023A0070083A60700F1
:1016A000372700001307F770634CD70083A60700A5
:1016B0009386160023A0D70083A60700E358D7FE21
:1016C000370700829306E0032320D70023A00700FA
:1016D00083A60700372700001307F770634CD70075
:1016E00083A607009386160023A0D70083A60700D1
:1016F000E358D7FE370700829306D0032320D70094
:1017000023A0070083A60700372700001307F77000
:10171000634CD70083A607009386160023A0D7004A
:1017200083A60700E358D7FE370700829306B0036D
:101730002320D70023A0070083A607003727000037
:101740001307F770634CD70083A607009386160033
:1017500023A0D70083A60700E358D7FE37070082EF
:10176000930670032320D70023A0070083A6070059
:10177000372700001307F770634CD70083A60700D4
:101780009386160023A0D70083A60700E358D7FE50
:10179000370700829306F0022320D70023A007001A
:1017A00083A60700372700001307F770634CD700A4
:1017B00083A607009386160023A0D70083A6070000
:1017C000E358D7FE370700829306F0012320D700A5
:1017D00023A0070083A60700372700001307F77030
:1017E000634CD70083A607009386160023A0D7007A
:1017F00083A60700E358D7FE370700829306F0035D
:101800002320D70023A0070083A607003727000066
:101810001307F770634CD70083A607009386160062
:1018200023A0D70083A60700E358D7FE370700821E
:101830002320070023A0070083A607003727000006
:101840001307F770634CD70083A607009386160032
:1018500023A0D70083A60700E358D7FE37070082EE
:101860009306F0032320D70023A0070083A60700D8
:10187000372700001307F770634CD70083A60700D3
:101880009386160023A0D70083A60700E358D7FE4F
:10189000B7390000938759992328F102B737000020
:1018A0009387179C232AF102B73700009387979DEF
:1018B000232CF102B73700009387179F232EF102E4
:1018C000B7370000938797A02320F104B7370000B3
:1018D000938717A22324F100B7370000938797A3BB
:1018E0002326F100B7370000938717A52328F100BE
:1018F000B73700009387D7A6232AF100B737000037
:10190000938797A8232CF100B7370000938717AA75
:10191000232EF100B73700009387D7AB2320F102C5
:10192000B7370000938797AE2322F102B737000044
:101930009387D7B2B73400002324F102938754B3BE
:101940002320F100B7370000938717B42326F10254
:10195000B73700009387178F2322F104B7370000B1
:101960009387D78F2324F104B7370000938797908C
:101970003704F0FFB73F0000373C0000B73C0000E1
:10198000373D0000B7320000373900002326F1044C
:10199000B73E00009307F4FF938F9F9A130CCC8DF2
:1019A000938C5CB1130D8DB4938212B2130999B369
:1019B00093849EB0B70A0083930BD000130BA00052
:1019C000930900022322F1009307D00023A0FA001C
:1019D000032701039307300523A06A0123A0FA001F
:1019E0009307500613071700E386672B23A0FA001E
:1019F00083470700E39807FE23A07A0123A06A012A
:101A000023A03A0113870F00930700021307170062
:101A1000E388672723A0FA0083470700E39807FEBF
:101A20000327410323A03A0193070002130717007D
:101A3000E38E672323A0FA0083470700E39807FE9D
:101A40000327810323A03A0193070002130717001D
:101A5000E384672123A0FA0083470700E39807FE89
:101A60000327C10323A03A019307000213071700BD
:101A7000E38A671D23A0FA0083470700E39807FE67
:101A80000327010423A03A0193070002130717005C
:101A9000E380671B23A0FA0083470700E39807FE53
:101AA0000327810023A03A019307000213071700C0
:101AB000E386671723A0FA0083470700E39807FE31
:101AC0000327C10023A03A01930700021307170060
:101AD000E38C671323A0FA0083470700E39807FE0F
:101AE0000327010123A03A019307000213071700FF
:101AF000E38A671F23A0FA0083470700E39807FEE5
:101B00000327410123A03A0193070002130717009E
:101B1000E380671D23A0FA0083470700E39807FED0
:101B20000327810123A03A0193070002130717003E
:101B3000E386671923A0FA0083470700E39807FEAE
:101B40000327C10123A03A019307000213071700DE
:101B5000E38C671523A0FA0083470700E39807FE8C
:101B60000327010223A03A0193070002130717007D
:101B7000E38E671923A0FA0083470700E39807FE66
:101B80000327410223A03A0193070002130717001D
:101B9000E384671723A0FA0083470700E39807FE52
:101BA0003704C0FF130AA000930D90041304F4FF40
:101BB00023A07A0123A06A0123A0BA01138704009D
:101BC0009307F00413071700638E677323A0FA00CE
:101BD00083470700E39807FEB707008283A7470003
:101BE00013D7C7013307EC0003460700630066758F
:101BF00013D787011377F7003307EC0083460700FC
:101C000023A0CA006382667513D747011377F700D4
:101C10003307EC000346070023A0DA00630466756F
:101C200013D707011377F7003307EC00834607004B
:101C300023A0CA006386667513D7C7001377F70021
:101C40003307EC000346070023A0DA00630866753B
:101C500013D787001377F7003307EC00834607009C
:101C600023A0CA00638A667513D747001377F7006D
:101C70003307EC000347070023A0DA00630C677505
:101C800093F7F700B307FC0083C7070023A0EA001F
:101C9000638E677523A0FA0023A07A0123A06A014E
:101CA00023A07A019307300423A06A0123A0FA003D
:101CB00013870C009307F00613071700638C6773F4
:101CC00023A0FA0083470700E39807FEF32700C02C
:101CD0001307F0FFF32700C083A70A00E38CE7FE99
:101CE0001387F7FD1377F70F9306D00593F7F70FD8
:101CF00063E6E6006380675723A0FA0023A07A0119
:101D000023A06A019387F7FC130720046360F7069A
:101D100093972700B307FD0083A70700678007009C
:101D200023A0C60023A0F60083470700E392079094
:101D30006FF05F9123A0C60023A0F6008347070041
:101D4000E39407926FF09F93B707008103A7070002
:101D5000832641003377D70023A0E70003A70700BD
:101D6000B70640003367D70023A0E700130AFAFF45
:101D7000E3100AE46FF05FC523A07A0193073005F2
:101D800023A06A0123A0FA0013870200930700052D
:101D900013071700E380671723A0FA0083470700A3
:101DA000E39807FE0327810223A03A01930700026C
:101DB00013071700E386672B23A0FA008347070069
:101DC000E39807FEB707008183A7070037074000A5
:101DD000B3F7E700E398072A9307F00423A0FA007B
:101DE000130709009307600413071700E38C672D9E
:101DF00023A0FA0083470700E39807FE0327C102E8
:101E000023A03A019307000213071700E384671F1A
:101E100023A0FA0083470700E39807FEB707008175
:101E200083A7070037071000B3F7E700E396071E04
:101E30009307F00423A0FA00130709009307600436
:101E400013071700638C670123A0FA00834707007C
:101E5000E38E07F013071700E39867FF23A07A01CA
:101E600023A0FA0083470700E39C07FC130AFAFF4C
:101E7000E3100AD46FF05FB5EFE0CFABB7370000E7
:101E8000938217B2130AFAFFB7370000938F979A1D
:101E9000E3100AD26FF05FB3B707008103A7070012
:101EA00083264100130AFAFF3377870023A0E70057
:101EB00003A707003377D70023A0E700E31A0ACE71
:101EC0006FF09FB0B707008103A70700B7061000A7
:101ED0003367D7006FF05FE8732E00C0732320C014
:101EE000B7B7B912930840019387170A1305011574
:101EF0001308001013060105930606001387070058
:101F00009317D700B3C7E70013D71701B3C7E7008C
:101F10001397570033C7E7002380E6009386160027
:101F2000E310D5FE9307070093060105930E00000A
:101F30001307000083C50600638A05009305011599
:101F4000B385D5012380E5F0938E1E00130717009B
:101F500093861600E31007FF0327060013064600CA
:101F6000B3C7E700E31AC5FE9388F8FFE39408F8C7
:101F7000F32500C0732620C08326410413073004D4
:101F800023A0EA001307900793861600630E677775
:101F900023A0EA0003C70600E31807FE338EC541FD
:101FA0001357CE013307EC00834607006380667940
:101FB00013578E011377F7003307EC0083450700B2
:101FC00023A0DA006382657913574E011377F70077
:101FD0003307EC008346070023A0BA0063846679C8
:101FE00013570E011377F7003307EC008345070002
:101FF00023A0DA00638665791357CE001377F700C4
:102000003307EC008346070023A0BA006388667993
:1020100013578E001377F7003307EC008345070052
:1020200023A0DA00638A657913574E001377F7000F
:102030003307EC008346070023A0BA00638C66795F
:10204000137EFE003307CC010347070023A0DA000C
:10205000630E677923A0EA0023A07A018326810416
:1020600023A06A0123A0BA011307E0069386160095
:102070006308674B23A0EA0003C70600E31807FEC6
:10208000330366401357C3013307EC008346070050
:10209000638A664B135783011377F7003307EC000D
:1020A0000346070023A0DA00630C664B1357430175
:1020B0001377F7003307EC008346070023A0CA001C
:1020C000638E664B135703011377F7003307EC0059
:1020D0000346070023A0DA006300664D1357C300D0
:1020E0001377F7003307EC008346070023A0CA00EC
:1020F0006382664D135783001377F7003307EC00B4
:102100000346070023A0DA006304664D135743001B
:102110001377F7003307EC008346070023A0CA00BB
:102120006386664D1373F30033076C0003470700A3
:1021300023A0DA006308674D23A0EA0023A07A01F8
:102140008326C1041307300423A06A0123A0EA00F8
:102150001307800693861600630A674B23A0EA00E4
:1021600003C70600E31807FE13D7C7013307EC00C7
:1021700003460700630C664B13D787011377F700FC
:102180003307EC008346070023A0CA00638E664B2A
:1021900013D747011377F7003307EC000346070016
:1021A00023A0DA006300664D13D707011377F70009
:1021B0003307EC008346070023A0CA006382664D04
:1021C00013D7C7001377F7003307EC000346070067
:1021D00023A0DA006304664D13D787001377F70056
:1021E0003307EC008346070023A0CA006386664DD0
:1021F00013D747001377F7003307EC0003470700B6
:1022000023A0DA006308674D93F7F700B307FC00DB
:1022100083C7070023A0EA00638A674D23A0FA0062
:1022200023A07A0123A06A01130AFAFFE3120A9895
:102230006FF08FF9EFE01F99B7370000938217B264
:10224000130AFAFFB7370000938F979AE3120A96A2
:102250006FF08FF723A07A016FF01FAA3707008273
:1022600083270700130AFAFF93C707022320F7000A
:10227000E3100A946FF04FF53707008283270700B9
:10228000130AFAFF93C707012320F700E3120A920B
:102290006FF08FF33707008283270700130AFAFFD6
:1022A00093C787002320F700E3140A906FF0CFF163
:1022B0003707008283270700130AFAFF93C74700F6
:1022C0002320F700E3160A8E6FF00FF03707008225
:1022D00083270700130AFAFF93C727002320F7007C
:1022E000E3180A8C6FF04FEE370700828327070050
:1022F000130AFAFF93C717002320F700E31A0A8A8C
:102300006FF08FEC23A07A0123A0FA008347070027
:10231000E39A078AB707008283A7470013D7C7014C
:102320003307EC0003460700E314668D13D78701DB
:102330001377F7003307EC008346070023A07A01E8
:1023400023A0CA00E392668D13D747011377F700E5
:102350003307EC000346070023A07A0123A0DA002C
:10236000E310668D13D707011377F7003307EC00EE
:102370008346070023A07A0123A0CA00E39E668B50
:1023800013D7C7001377F7003307EC0003460700A5
:1023900023A07A0123A0DA00E31C668B13D7870001
:1023A0001377F7003307EC008346070023A07A0178
:1023B00023A0CA00E39A668B13D747001377F70070
:1023C0003307EC000347070023A07A0123A0DA00BB
:1023D000E318678B93F7F700B307FC0083C7070088
:1023E00023A07A0123A0EA00E396678B23A07A0159
:1023F0006FF05F8A23A07A0123A0FA0083470700C9
:10240000E39C078A6FF09F8C23A07A0123A0FA0037
:1024100083470700639C07EA6FF08FEC23A07A01E3
:1024200023A0FA0083470700639207E86FF04FE9A3
:1024300023A07A0123A0FA0083470700639807E4EA
:102440006FF00FE623A07A0123A0FA00834707006C
:10245000639E07E06FF0CFE223A07A0123A0FA0089
:1024600083470700639407DE6FF08FDF23A07A01B4
:1024700023A0FA0083470700639A07DA6FF04FDC66
:1024800023A07A0123A0FA0083470700639007D8AE
:102490006FF00FD923A07A0123A0FA008347070029
:1024A000639207D46FF04FD523A07A0123A0FA00DE
:1024B00083470700639C07E86FF08FEA23A07A0147
:1024C00023A0FA0083470700639207E66FF04FE707
:1024D00023A07A0123A0FA0083470700639807E24C
:1024E0006FF00FE423A07A0123A0FA0083470700CE
:1024F000639E07DE6FF0CFE023A07A0123A0FA00ED
:1025000083470700639407E86FF08FE923A07A01FF
:1025100023A0FA0083470700639A07E46FF04FE6B1
:1025200023A07A0123A0EA0003C70600E31007B442
:10253000330366401357C3013307EC00834607009B
:10254000E39A66B5135783011377F7003307EC005E
:102550000346070023A07A0123A0DA00E31866B53A
:10256000135743011377F7003307EC008346070046
:1025700023A07A0123A0CA00E39666B5135703018E
:102580001377F7003307EC000346070023A07A0116
:1025900023A0DA00E31466B51357C3001377F700DE
:1025A0003307EC008346070023A07A0123A0CA006A
:1025B000E39266B5135783001377F7003307EC00F7
:1025C0000346070023A07A0123A0DA00E31066B5D2
:1025D000135743001377F7003307EC0083460700D7
:1025E00023A07A0123A0CA00E39E66B31373F3000D
:1025F00033076C000347070023A07A0123A0DA0009
:10260000E31C67B323A07A016FF01FB323A07A0104
:1026100023A0EA0003C70600E31E07B213D7C701D1
:102620003307EC0003460700E31866B513D78701AC
:102630001377F7003307EC008346070023A07A01E5
:1026400023A0CA00E39666B513D747011377F700B6
:102650003307EC000346070023A07A0123A0DA0029
:10266000E31466B513D707011377F7003307EC00BF
:102670008346070023A07A0123A0CA00E39266B52F
:1026800013D7C7001377F7003307EC0003460700A2
:1026900023A07A0123A0DA00E31066B513D78700E0
:1026A0001377F7003307EC008346070023A07A0175
:1026B00023A0CA00E39E66B313D747001377F70041
:1026C0003307EC000347070023A07A0123A0DA00B8
:1026D000E31C67B393F7F700B307FC0083C7070059
:1026E00023A07A0123A0EA00E39A67B323A07A012A
:1026F0006FF0DFB223A07A0123A0FA00834707001E
:10270000639807E86FF00FEA23A07A0123A0EA009C
:1027100003C70600E31A0786338EC5411357CE015F
:102720003307EC0083460700E394668913578E0154
:102730001377F7003307EC008345070023A07A01E5
:1027400023A0DA00E392658913574E011377F7004F
:102750003307EC008346070023A07A0123A0BA00C8
:10276000E390668913570E011377F7003307EC00E7
:102770008345070023A07A0123A0DA00E39E658742
:102780001357CE001377F7003307EC00834607009A
:1027900023A07A0123A0BA00E39C668713578E001A
:1027A0001377F7003307EC008345070023A07A0175
:1027B00023A0DA00E39A658713574E001377F700DA
:1027C0003307EC008346070023A07A0123A0BA0058
:1027D000E3986687137EFE003307CC0103470700AA
:1027E00023A07A0123A0DA00E316678723A07A01E9
:1027F0006FF05F8623A07A0123A0FA0083470700C9
:10280000639407E0B707008183A70700370710002C
:10281000B3F7E700638E07E0032701009307F00496
:1028200023A0FA009307E00413071700638C6701E5
:1028300023A0FA0083470700638A07D21307170013
:10284000E39867FF23A07A0123A0FA0083470700DB
:10285000E39C07FC130AFAFF631C0AB46FF0CF96DF
:1028600023A07A0123A0FA0083470700639207D4CC
:10287000B707008183A7070037074000B3F7E700D9
:10288000638C07D4032701009307F00423A0FA0008
:102890009307E00413071700638C670123A0FA0075
:1028A00083470700638C07D413071700E39867FF7B
:1028B00023A07A0123A0FA0083470700E39C07FCCA
:1028C0006FF0CFD323A07A0123A0FA00834707003B
:1028D000639C07D06FF08FD26780000030313233B5
:1028E000343536373839616263646566000000004C
:1028F0004379636C65733A2030780000496E7374D5
:102900006E733A203078000043686B73756D3A201F
:102910003078000064656661756C7420202020208A
:1029200020202000647370692D00000020202020EA
:102930002020202020000000647370692D63726DD8
:102940002D000000696E73746E73202020202020FB
:102950002020203A200000005C6E0A0A0A0A0000CB
:1029600020202020202020202020204F6E204C6975
:10297000636865652054616E67204E616E6F2D3906
:102980004B20627920506574657220476C656E0A31
:102990000000000053656C65637420616E20616304
:1029A00074696F6E3A0A00002020205B315D20546C
:1029B0006F67676C65206C656420310A0000000059
:1029C0002020205B325D20546F67676C65206C654A
:1029D0006420320A000000002020205B335D205478
:1029E0006F67676C65206C656420330A0000000027
:1029F0002020205B345D20546F67676C65206C6518
:102A00006420340A000000002020205B355D205443
:102A10006F67676C65206C656420350A00000000F4
:102A20002020205B365D20546F67676C65206C65E5
:102A30006420360A000000002020205B465D20470D
:102A4000657420666C617368206D6F64650A0000B0
:102A50002020205B495D205265616420535049204D
:102A6000666C6173682049440A0000002020205BE6
:102A7000535D205365742053696E676C6520535015
:102A800049206D6F64650A002020205B445D20535F
:102A900065742044535049206D6F64650A0000003E
:102AA0002020205B435D2053657420445350492B04
:102AB00043524D206D6F64650A0000002020205BAA
:102AC000425D2052756E2073696D706C6973746914
:102AD000632062656E63686D61726B20566572205B
:102AE000312E302E300A00002020205B415D204234
:102AF000656E63686D61726B20616C6C20636F6ED4
:102B0000666967730A000000494F20537461746559
:102B10003A200000436F6D6D616E643E200000003E
:102B20005350492053746174653A0A00202044537D
:102B3000504920004F4E0A004F46460A0000000050
:102B4000202043524D202000E8220000CC2200002B
:102B5000B022000094220000782200005C220000D5
:102B60006C1D00006C1D00006C1D00006C1D000041
:102B70006C1D00006C1D00006C1D00006C1D000031
:102B80006C1D00006C1D000034220000D81E0000E7
:102B9000C41E0000481D00006C1D0000781D0000D0
:102BA0006C1D00006C1D0000781E00006C1D0000F4
:102BB0006C1D00006C1D00006C1D00006C1D0000F1
:102BC0006C1D00006C1D00006C1D00006C1D0000E1
:102BD000981E00006C1D00006C1D00006C1D0000A4
:102BE0006C1D00006C1D00006C1D00006C1D0000C1
:102BF0006C1D00006C1D00006C1D00006C1D0000B1
:102C00006C1D00006C1D000034220000D81E000066
:102C1000C41E0000481D00006C1D0000781D00004F
:102C20006C1D00006C1D0000781E00006C1D000073
:102C30006C1D00006C1D00006C1D00006C1D000070
:102C40006C1D00006C1D00006C1D00006C1D000060
:042C5000981E0000CA
:042C540054000080A8
:00000001FF
